{
  "contracts/Borrower.sol": {
    "Borrower": {
      "abi": [
        {
          "inputs": [
            {
              "internalType": "uint256",
              "name": "_interestRate",
              "type": "uint256"
            }
          ],
          "stateMutability": "nonpayable",
          "type": "constructor"
        },
        {
          "inputs": [
            {
              "internalType": "address",
              "name": "owner",
              "type": "address"
            }
          ],
          "name": "OwnableInvalidOwner",
          "type": "error"
        },
        {
          "inputs": [
            {
              "internalType": "address",
              "name": "account",
              "type": "address"
            }
          ],
          "name": "OwnableUnauthorizedAccount",
          "type": "error"
        },
        {
          "anonymous": false,
          "inputs": [
            {
              "indexed": true,
              "internalType": "address",
              "name": "previousOwner",
              "type": "address"
            },
            {
              "indexed": true,
              "internalType": "address",
              "name": "newOwner",
              "type": "address"
            }
          ],
          "name": "OwnershipTransferred",
          "type": "event"
        },
        {
          "inputs": [
            {
              "internalType": "uint256",
              "name": "_amount",
              "type": "uint256"
            },
            {
              "internalType": "uint256",
              "name": "_loanDuration",
              "type": "uint256"
            },
            {
              "internalType": "address",
              "name": "_borrowerAddress",
              "type": "address"
            }
          ],
          "name": "borrow",
          "outputs": [],
          "stateMutability": "nonpayable",
          "type": "function"
        },
        {
          "inputs": [
            {
              "internalType": "address",
              "name": "",
              "type": "address"
            }
          ],
          "name": "borrowers",
          "outputs": [
            {
              "internalType": "uint256",
              "name": "stackedTokens",
              "type": "uint256"
            },
            {
              "internalType": "uint256",
              "name": "repaymentAmount",
              "type": "uint256"
            },
            {
              "internalType": "uint256",
              "name": "borrowTime",
              "type": "uint256"
            },
            {
              "internalType": "uint256",
              "name": "loanDuration",
              "type": "uint256"
            }
          ],
          "stateMutability": "view",
          "type": "function"
        },
        {
          "inputs": [
            {
              "internalType": "address",
              "name": "_borrowerAddress",
              "type": "address"
            }
          ],
          "name": "claimCollateral",
          "outputs": [],
          "stateMutability": "nonpayable",
          "type": "function"
        },
        {
          "inputs": [],
          "name": "collateralAmount",
          "outputs": [
            {
              "internalType": "uint256",
              "name": "",
              "type": "uint256"
            }
          ],
          "stateMutability": "view",
          "type": "function"
        },
        {
          "inputs": [],
          "name": "interestRate",
          "outputs": [
            {
              "internalType": "uint256",
              "name": "",
              "type": "uint256"
            }
          ],
          "stateMutability": "view",
          "type": "function"
        },
        {
          "inputs": [],
          "name": "owner",
          "outputs": [
            {
              "internalType": "address",
              "name": "",
              "type": "address"
            }
          ],
          "stateMutability": "view",
          "type": "function"
        },
        {
          "inputs": [],
          "name": "renounceOwnership",
          "outputs": [],
          "stateMutability": "nonpayable",
          "type": "function"
        },
        {
          "inputs": [
            {
              "internalType": "uint256",
              "name": "_amount",
              "type": "uint256"
            },
            {
              "internalType": "address",
              "name": "_borrowerAddress",
              "type": "address"
            }
          ],
          "name": "repay",
          "outputs": [
            {
              "internalType": "bool",
              "name": "",
              "type": "bool"
            },
            {
              "internalType": "uint256",
              "name": "",
              "type": "uint256"
            }
          ],
          "stateMutability": "nonpayable",
          "type": "function"
        },
        {
          "inputs": [
            {
              "internalType": "uint256",
              "name": "_stackedTokens",
              "type": "uint256"
            },
            {
              "internalType": "address",
              "name": "_borrowerAddress",
              "type": "address"
            }
          ],
          "name": "stakeTokens",
          "outputs": [],
          "stateMutability": "nonpayable",
          "type": "function"
        },
        {
          "inputs": [
            {
              "internalType": "address",
              "name": "newOwner",
              "type": "address"
            }
          ],
          "name": "transferOwnership",
          "outputs": [],
          "stateMutability": "nonpayable",
          "type": "function"
        }
      ],
      "evm": {
        "bytecode": {
          "linkReferences": {},
          "object": "60806040523480156200001157600080fd5b50604051620010ef380380620010ef8339818101604052810190620000379190620001d1565b33600073ffffffffffffffffffffffffffffffffffffffff168173ffffffffffffffffffffffffffffffffffffffff1603620000ad5760006040517f1e4fbdf7000000000000000000000000000000000000000000000000000000008152600401620000a4919062000248565b60405180910390fd5b620000be81620000cd60201b60201c565b50806001819055505062000265565b60008060009054906101000a900473ffffffffffffffffffffffffffffffffffffffff169050816000806101000a81548173ffffffffffffffffffffffffffffffffffffffff021916908373ffffffffffffffffffffffffffffffffffffffff1602179055508173ffffffffffffffffffffffffffffffffffffffff168173ffffffffffffffffffffffffffffffffffffffff167f8be0079c531659141344cd1fd0a4f28419497f9722a3daafe3b4186f6b6457e060405160405180910390a35050565b600080fd5b6000819050919050565b620001ab8162000196565b8114620001b757600080fd5b50565b600081519050620001cb81620001a0565b92915050565b600060208284031215620001ea57620001e962000191565b5b6000620001fa84828501620001ba565b91505092915050565b600073ffffffffffffffffffffffffffffffffffffffff82169050919050565b6000620002308262000203565b9050919050565b620002428162000223565b82525050565b60006020820190506200025f600083018462000237565b92915050565b610e7a80620002756000396000f3fe608060405234801561001057600080fd5b506004361061009e5760003560e01c806392d09ceb1161006657806392d09ceb14610121578063acb708151461013f578063bf5d50c414610170578063d6bda0c0146101a3578063f2fde38b146101bf5761009e565b80630bea440d146100a3578063715018a6146100bf5780637c3a00fd146100c95780638235b284146100e75780638da5cb5b14610103575b600080fd5b6100bd60048036038101906100b891906108af565b6101db565b005b6100c7610240565b005b6100d1610254565b6040516100de91906108fe565b60405180910390f35b61010160048036038101906100fc9190610919565b61025a565b005b61010b61035f565b6040516101189190610955565b60405180910390f35b610129610388565b60405161013691906108fe565b60405180910390f35b610159600480360381019061015491906108af565b61038d565b60405161016792919061098b565b60405180910390f35b61018a60048036038101906101859190610919565b6104df565b60405161019a94939291906109b4565b60405180910390f35b6101bd60048036038101906101b891906109f9565b61050f565b005b6101d960048036038101906101d49190610919565b61063d565b005b6101e36106c3565b81600260008373ffffffffffffffffffffffffffffffffffffffff1673ffffffffffffffffffffffffffffffffffffffff16815260200190815260200160002060000160008282546102359190610a7b565b925050819055505050565b6102486106c3565b610252600061074a565b565b60015481565b6102626106c3565b6000600260008373ffffffffffffffffffffffffffffffffffffffff1673ffffffffffffffffffffffffffffffffffffffff168152602001908152602001600020905060008160000154116102ec576040517f08c379a00000000000000000000000000000000000000000000000000000000081526004016102e390610b0c565b60405180910390fd5b60008160020154426102fe9190610b2c565b905081600301548111610346576040517f08c379a000000000000000000000000000000000000000000000000000000000815260040161033d90610bac565b60405180910390fd5b6000826000018190555060008260010181905550505050565b60008060009054906101000a900473ffffffffffffffffffffffffffffffffffffffff16905090565b606481565b6000806103986106c3565b600084116103db576040517f08c379a00000000000000000000000000000000000000000000000000000000081526004016103d290610c3e565b60405180910390fd5b6000600260008573ffffffffffffffffffffffffffffffffffffffff1673ffffffffffffffffffffffffffffffffffffffff168152602001908152602001600020905060008160020154426104309190610b2c565b90508160030154811115610479576040517f08c379a000000000000000000000000000000000000000000000000000000000815260040161047090610caa565b60405180910390fd5b600082600101548710156104b1578683600101600082825461049b9190610b2c565b92505081905550600081945094505050506104d8565b8260010154876104c19190610b2c565b905060008360010181905550600181945094505050505b9250929050565b60026020528060005260406000206000915090508060000154908060010154908060020154908060030154905084565b6105176106c3565b6000600260008373ffffffffffffffffffffffffffffffffffffffff1673ffffffffffffffffffffffffffffffffffffffff16815260200190815260200160002090506064816000015410156105a2576040517f08c379a000000000000000000000000000000000000000000000000000000000815260040161059990610d16565b60405180910390fd5b60008160010154146105e9576040517f08c379a00000000000000000000000000000000000000000000000000000000081526004016105e090610d82565b60405180910390fd5b42816002018190555082816003018190555064496cebb80083600154866106109190610da2565b61061a9190610da2565b6106249190610e13565b8461062f9190610a7b565b816001018190555050505050565b6106456106c3565b600073ffffffffffffffffffffffffffffffffffffffff168173ffffffffffffffffffffffffffffffffffffffff16036106b75760006040517f1e4fbdf70000000000000000000000000000000000000000000000000000000081526004016106ae9190610955565b60405180910390fd5b6106c08161074a565b50565b6106cb61080e565b73ffffffffffffffffffffffffffffffffffffffff166106e961035f565b73ffffffffffffffffffffffffffffffffffffffff16146107485761070c61080e565b6040517f118cdaa700000000000000000000000000000000000000000000000000000000815260040161073f9190610955565b60405180910390fd5b565b60008060009054906101000a900473ffffffffffffffffffffffffffffffffffffffff169050816000806101000a81548173ffffffffffffffffffffffffffffffffffffffff021916908373ffffffffffffffffffffffffffffffffffffffff1602179055508173ffffffffffffffffffffffffffffffffffffffff168173ffffffffffffffffffffffffffffffffffffffff167f8be0079c531659141344cd1fd0a4f28419497f9722a3daafe3b4186f6b6457e060405160405180910390a35050565b600033905090565b600080fd5b6000819050919050565b61082e8161081b565b811461083957600080fd5b50565b60008135905061084b81610825565b92915050565b600073ffffffffffffffffffffffffffffffffffffffff82169050919050565b600061087c82610851565b9050919050565b61088c81610871565b811461089757600080fd5b50565b6000813590506108a981610883565b92915050565b600080604083850312156108c6576108c5610816565b5b60006108d48582860161083c565b92505060206108e58582860161089a565b9150509250929050565b6108f88161081b565b82525050565b600060208201905061091360008301846108ef565b92915050565b60006020828403121561092f5761092e610816565b5b600061093d8482850161089a565b91505092915050565b61094f81610871565b82525050565b600060208201905061096a6000830184610946565b92915050565b60008115159050919050565b61098581610970565b82525050565b60006040820190506109a0600083018561097c565b6109ad60208301846108ef565b9392505050565b60006080820190506109c960008301876108ef565b6109d660208301866108ef565b6109e360408301856108ef565b6109f060608301846108ef565b95945050505050565b600080600060608486031215610a1257610a11610816565b5b6000610a208682870161083c565b9350506020610a318682870161083c565b9250506040610a428682870161089a565b9150509250925092565b7f4e487b7100000000000000000000000000000000000000000000000000000000600052601160045260246000fd5b6000610a868261081b565b9150610a918361081b565b9250828201905080821115610aa957610aa8610a4c565b5b92915050565b600082825260208201905092915050565b7f4e6f20636f6c6c61746572616c20746f20636c61696d00000000000000000000600082015250565b6000610af6601683610aaf565b9150610b0182610ac0565b602082019050919050565b60006020820190508181036000830152610b2581610ae9565b9050919050565b6000610b378261081b565b9150610b428361081b565b9250828203905081811115610b5a57610b59610a4c565b5b92915050565b7f4c6f616e206475726174696f6e206e6f74206578636565646564000000000000600082015250565b6000610b96601a83610aaf565b9150610ba182610b60565b602082019050919050565b60006020820190508181036000830152610bc581610b89565b9050919050565b7f52657061796d656e7420616d6f756e74206d757374206265206772656174657260008201527f207468616e207a65726f00000000000000000000000000000000000000000000602082015250565b6000610c28602a83610aaf565b9150610c3382610bcc565b604082019050919050565b60006020820190508181036000830152610c5781610c1b565b9050919050565b7f4c6f616e206475726174696f6e20657863656564656400000000000000000000600082015250565b6000610c94601683610aaf565b9150610c9f82610c5e565b602082019050919050565b60006020820190508181036000830152610cc381610c87565b9050919050565b7f4e6f7420656e6f756768207374616b656420746f6b656e730000000000000000600082015250565b6000610d00601883610aaf565b9150610d0b82610cca565b602082019050919050565b60006020820190508181036000830152610d2f81610cf3565b9050919050565b7f506c7a2072657061792070726576696f7573206c6f616e000000000000000000600082015250565b6000610d6c601783610aaf565b9150610d7782610d36565b602082019050919050565b60006020820190508181036000830152610d9b81610d5f565b9050919050565b6000610dad8261081b565b9150610db88361081b565b9250828202610dc68161081b565b91508282048414831517610ddd57610ddc610a4c565b5b5092915050565b7f4e487b7100000000000000000000000000000000000000000000000000000000600052601260045260246000fd5b6000610e1e8261081b565b9150610e298361081b565b925082610e3957610e38610de4565b5b82820490509291505056fea26469706673582212200638821c785d72d18ea6318046ee6288b1a8c88cc3ecc7034f86dfbcf5d1608764736f6c63430008180033",
          "opcodes": "PUSH1 0x80 PUSH1 0x40 MSTORE CALLVALUE DUP1 ISZERO PUSH3 0x11 JUMPI PUSH1 0x0 DUP1 REVERT JUMPDEST POP PUSH1 0x40 MLOAD PUSH3 0x10EF CODESIZE SUB DUP1 PUSH3 0x10EF DUP4 CODECOPY DUP2 DUP2 ADD PUSH1 0x40 MSTORE DUP2 ADD SWAP1 PUSH3 0x37 SWAP2 SWAP1 PUSH3 0x1D1 JUMP JUMPDEST CALLER PUSH1 0x0 PUSH20 0xFFFFFFFFFFFFFFFFFFFFFFFFFFFFFFFFFFFFFFFF AND DUP2 PUSH20 0xFFFFFFFFFFFFFFFFFFFFFFFFFFFFFFFFFFFFFFFF AND SUB PUSH3 0xAD JUMPI PUSH1 0x0 PUSH1 0x40 MLOAD PUSH32 0x1E4FBDF700000000000000000000000000000000000000000000000000000000 DUP2 MSTORE PUSH1 0x4 ADD PUSH3 0xA4 SWAP2 SWAP1 PUSH3 0x248 JUMP JUMPDEST PUSH1 0x40 MLOAD DUP1 SWAP2 SUB SWAP1 REVERT JUMPDEST PUSH3 0xBE DUP2 PUSH3 0xCD PUSH1 0x20 SHL PUSH1 0x20 SHR JUMP JUMPDEST POP DUP1 PUSH1 0x1 DUP2 SWAP1 SSTORE POP POP PUSH3 0x265 JUMP JUMPDEST PUSH1 0x0 DUP1 PUSH1 0x0 SWAP1 SLOAD SWAP1 PUSH2 0x100 EXP SWAP1 DIV PUSH20 0xFFFFFFFFFFFFFFFFFFFFFFFFFFFFFFFFFFFFFFFF AND SWAP1 POP DUP2 PUSH1 0x0 DUP1 PUSH2 0x100 EXP DUP2 SLOAD DUP2 PUSH20 0xFFFFFFFFFFFFFFFFFFFFFFFFFFFFFFFFFFFFFFFF MUL NOT AND SWAP1 DUP4 PUSH20 0xFFFFFFFFFFFFFFFFFFFFFFFFFFFFFFFFFFFFFFFF AND MUL OR SWAP1 SSTORE POP DUP2 PUSH20 0xFFFFFFFFFFFFFFFFFFFFFFFFFFFFFFFFFFFFFFFF AND DUP2 PUSH20 0xFFFFFFFFFFFFFFFFFFFFFFFFFFFFFFFFFFFFFFFF AND PUSH32 0x8BE0079C531659141344CD1FD0A4F28419497F9722A3DAAFE3B4186F6B6457E0 PUSH1 0x40 MLOAD PUSH1 0x40 MLOAD DUP1 SWAP2 SUB SWAP1 LOG3 POP POP JUMP JUMPDEST PUSH1 0x0 DUP1 REVERT JUMPDEST PUSH1 0x0 DUP2 SWAP1 POP SWAP2 SWAP1 POP JUMP JUMPDEST PUSH3 0x1AB DUP2 PUSH3 0x196 JUMP JUMPDEST DUP2 EQ PUSH3 0x1B7 JUMPI PUSH1 0x0 DUP1 REVERT JUMPDEST POP JUMP JUMPDEST PUSH1 0x0 DUP2 MLOAD SWAP1 POP PUSH3 0x1CB DUP2 PUSH3 0x1A0 JUMP JUMPDEST SWAP3 SWAP2 POP POP JUMP JUMPDEST PUSH1 0x0 PUSH1 0x20 DUP3 DUP5 SUB SLT ISZERO PUSH3 0x1EA JUMPI PUSH3 0x1E9 PUSH3 0x191 JUMP JUMPDEST JUMPDEST PUSH1 0x0 PUSH3 0x1FA DUP5 DUP3 DUP6 ADD PUSH3 0x1BA JUMP JUMPDEST SWAP2 POP POP SWAP3 SWAP2 POP POP JUMP JUMPDEST PUSH1 0x0 PUSH20 0xFFFFFFFFFFFFFFFFFFFFFFFFFFFFFFFFFFFFFFFF DUP3 AND SWAP1 POP SWAP2 SWAP1 POP JUMP JUMPDEST PUSH1 0x0 PUSH3 0x230 DUP3 PUSH3 0x203 JUMP JUMPDEST SWAP1 POP SWAP2 SWAP1 POP JUMP JUMPDEST PUSH3 0x242 DUP2 PUSH3 0x223 JUMP JUMPDEST DUP3 MSTORE POP POP JUMP JUMPDEST PUSH1 0x0 PUSH1 0x20 DUP3 ADD SWAP1 POP PUSH3 0x25F PUSH1 0x0 DUP4 ADD DUP5 PUSH3 0x237 JUMP JUMPDEST SWAP3 SWAP2 POP POP JUMP JUMPDEST PUSH2 0xE7A DUP1 PUSH3 0x275 PUSH1 0x0 CODECOPY PUSH1 0x0 RETURN INVALID PUSH1 0x80 PUSH1 0x40 MSTORE CALLVALUE DUP1 ISZERO PUSH2 0x10 JUMPI PUSH1 0x0 DUP1 REVERT JUMPDEST POP PUSH1 0x4 CALLDATASIZE LT PUSH2 0x9E JUMPI PUSH1 0x0 CALLDATALOAD PUSH1 0xE0 SHR DUP1 PUSH4 0x92D09CEB GT PUSH2 0x66 JUMPI DUP1 PUSH4 0x92D09CEB EQ PUSH2 0x121 JUMPI DUP1 PUSH4 0xACB70815 EQ PUSH2 0x13F JUMPI DUP1 PUSH4 0xBF5D50C4 EQ PUSH2 0x170 JUMPI DUP1 PUSH4 0xD6BDA0C0 EQ PUSH2 0x1A3 JUMPI DUP1 PUSH4 0xF2FDE38B EQ PUSH2 0x1BF JUMPI PUSH2 0x9E JUMP JUMPDEST DUP1 PUSH4 0xBEA440D EQ PUSH2 0xA3 JUMPI DUP1 PUSH4 0x715018A6 EQ PUSH2 0xBF JUMPI DUP1 PUSH4 0x7C3A00FD EQ PUSH2 0xC9 JUMPI DUP1 PUSH4 0x8235B284 EQ PUSH2 0xE7 JUMPI DUP1 PUSH4 0x8DA5CB5B EQ PUSH2 0x103 JUMPI JUMPDEST PUSH1 0x0 DUP1 REVERT JUMPDEST PUSH2 0xBD PUSH1 0x4 DUP1 CALLDATASIZE SUB DUP2 ADD SWAP1 PUSH2 0xB8 SWAP2 SWAP1 PUSH2 0x8AF JUMP JUMPDEST PUSH2 0x1DB JUMP JUMPDEST STOP JUMPDEST PUSH2 0xC7 PUSH2 0x240 JUMP JUMPDEST STOP JUMPDEST PUSH2 0xD1 PUSH2 0x254 JUMP JUMPDEST PUSH1 0x40 MLOAD PUSH2 0xDE SWAP2 SWAP1 PUSH2 0x8FE JUMP JUMPDEST PUSH1 0x40 MLOAD DUP1 SWAP2 SUB SWAP1 RETURN JUMPDEST PUSH2 0x101 PUSH1 0x4 DUP1 CALLDATASIZE SUB DUP2 ADD SWAP1 PUSH2 0xFC SWAP2 SWAP1 PUSH2 0x919 JUMP JUMPDEST PUSH2 0x25A JUMP JUMPDEST STOP JUMPDEST PUSH2 0x10B PUSH2 0x35F JUMP JUMPDEST PUSH1 0x40 MLOAD PUSH2 0x118 SWAP2 SWAP1 PUSH2 0x955 JUMP JUMPDEST PUSH1 0x40 MLOAD DUP1 SWAP2 SUB SWAP1 RETURN JUMPDEST PUSH2 0x129 PUSH2 0x388 JUMP JUMPDEST PUSH1 0x40 MLOAD PUSH2 0x136 SWAP2 SWAP1 PUSH2 0x8FE JUMP JUMPDEST PUSH1 0x40 MLOAD DUP1 SWAP2 SUB SWAP1 RETURN JUMPDEST PUSH2 0x159 PUSH1 0x4 DUP1 CALLDATASIZE SUB DUP2 ADD SWAP1 PUSH2 0x154 SWAP2 SWAP1 PUSH2 0x8AF JUMP JUMPDEST PUSH2 0x38D JUMP JUMPDEST PUSH1 0x40 MLOAD PUSH2 0x167 SWAP3 SWAP2 SWAP1 PUSH2 0x98B JUMP JUMPDEST PUSH1 0x40 MLOAD DUP1 SWAP2 SUB SWAP1 RETURN JUMPDEST PUSH2 0x18A PUSH1 0x4 DUP1 CALLDATASIZE SUB DUP2 ADD SWAP1 PUSH2 0x185 SWAP2 SWAP1 PUSH2 0x919 JUMP JUMPDEST PUSH2 0x4DF JUMP JUMPDEST PUSH1 0x40 MLOAD PUSH2 0x19A SWAP5 SWAP4 SWAP3 SWAP2 SWAP1 PUSH2 0x9B4 JUMP JUMPDEST PUSH1 0x40 MLOAD DUP1 SWAP2 SUB SWAP1 RETURN JUMPDEST PUSH2 0x1BD PUSH1 0x4 DUP1 CALLDATASIZE SUB DUP2 ADD SWAP1 PUSH2 0x1B8 SWAP2 SWAP1 PUSH2 0x9F9 JUMP JUMPDEST PUSH2 0x50F JUMP JUMPDEST STOP JUMPDEST PUSH2 0x1D9 PUSH1 0x4 DUP1 CALLDATASIZE SUB DUP2 ADD SWAP1 PUSH2 0x1D4 SWAP2 SWAP1 PUSH2 0x919 JUMP JUMPDEST PUSH2 0x63D JUMP JUMPDEST STOP JUMPDEST PUSH2 0x1E3 PUSH2 0x6C3 JUMP JUMPDEST DUP2 PUSH1 0x2 PUSH1 0x0 DUP4 PUSH20 0xFFFFFFFFFFFFFFFFFFFFFFFFFFFFFFFFFFFFFFFF AND PUSH20 0xFFFFFFFFFFFFFFFFFFFFFFFFFFFFFFFFFFFFFFFF AND DUP2 MSTORE PUSH1 0x20 ADD SWAP1 DUP2 MSTORE PUSH1 0x20 ADD PUSH1 0x0 KECCAK256 PUSH1 0x0 ADD PUSH1 0x0 DUP3 DUP3 SLOAD PUSH2 0x235 SWAP2 SWAP1 PUSH2 0xA7B JUMP JUMPDEST SWAP3 POP POP DUP2 SWAP1 SSTORE POP POP POP JUMP JUMPDEST PUSH2 0x248 PUSH2 0x6C3 JUMP JUMPDEST PUSH2 0x252 PUSH1 0x0 PUSH2 0x74A JUMP JUMPDEST JUMP JUMPDEST PUSH1 0x1 SLOAD DUP2 JUMP JUMPDEST PUSH2 0x262 PUSH2 0x6C3 JUMP JUMPDEST PUSH1 0x0 PUSH1 0x2 PUSH1 0x0 DUP4 PUSH20 0xFFFFFFFFFFFFFFFFFFFFFFFFFFFFFFFFFFFFFFFF AND PUSH20 0xFFFFFFFFFFFFFFFFFFFFFFFFFFFFFFFFFFFFFFFF AND DUP2 MSTORE PUSH1 0x20 ADD SWAP1 DUP2 MSTORE PUSH1 0x20 ADD PUSH1 0x0 KECCAK256 SWAP1 POP PUSH1 0x0 DUP2 PUSH1 0x0 ADD SLOAD GT PUSH2 0x2EC JUMPI PUSH1 0x40 MLOAD PUSH32 0x8C379A000000000000000000000000000000000000000000000000000000000 DUP2 MSTORE PUSH1 0x4 ADD PUSH2 0x2E3 SWAP1 PUSH2 0xB0C JUMP JUMPDEST PUSH1 0x40 MLOAD DUP1 SWAP2 SUB SWAP1 REVERT JUMPDEST PUSH1 0x0 DUP2 PUSH1 0x2 ADD SLOAD TIMESTAMP PUSH2 0x2FE SWAP2 SWAP1 PUSH2 0xB2C JUMP JUMPDEST SWAP1 POP DUP2 PUSH1 0x3 ADD SLOAD DUP2 GT PUSH2 0x346 JUMPI PUSH1 0x40 MLOAD PUSH32 0x8C379A000000000000000000000000000000000000000000000000000000000 DUP2 MSTORE PUSH1 0x4 ADD PUSH2 0x33D SWAP1 PUSH2 0xBAC JUMP JUMPDEST PUSH1 0x40 MLOAD DUP1 SWAP2 SUB SWAP1 REVERT JUMPDEST PUSH1 0x0 DUP3 PUSH1 0x0 ADD DUP2 SWAP1 SSTORE POP PUSH1 0x0 DUP3 PUSH1 0x1 ADD DUP2 SWAP1 SSTORE POP POP POP POP JUMP JUMPDEST PUSH1 0x0 DUP1 PUSH1 0x0 SWAP1 SLOAD SWAP1 PUSH2 0x100 EXP SWAP1 DIV PUSH20 0xFFFFFFFFFFFFFFFFFFFFFFFFFFFFFFFFFFFFFFFF AND SWAP1 POP SWAP1 JUMP JUMPDEST PUSH1 0x64 DUP2 JUMP JUMPDEST PUSH1 0x0 DUP1 PUSH2 0x398 PUSH2 0x6C3 JUMP JUMPDEST PUSH1 0x0 DUP5 GT PUSH2 0x3DB JUMPI PUSH1 0x40 MLOAD PUSH32 0x8C379A000000000000000000000000000000000000000000000000000000000 DUP2 MSTORE PUSH1 0x4 ADD PUSH2 0x3D2 SWAP1 PUSH2 0xC3E JUMP JUMPDEST PUSH1 0x40 MLOAD DUP1 SWAP2 SUB SWAP1 REVERT JUMPDEST PUSH1 0x0 PUSH1 0x2 PUSH1 0x0 DUP6 PUSH20 0xFFFFFFFFFFFFFFFFFFFFFFFFFFFFFFFFFFFFFFFF AND PUSH20 0xFFFFFFFFFFFFFFFFFFFFFFFFFFFFFFFFFFFFFFFF AND DUP2 MSTORE PUSH1 0x20 ADD SWAP1 DUP2 MSTORE PUSH1 0x20 ADD PUSH1 0x0 KECCAK256 SWAP1 POP PUSH1 0x0 DUP2 PUSH1 0x2 ADD SLOAD TIMESTAMP PUSH2 0x430 SWAP2 SWAP1 PUSH2 0xB2C JUMP JUMPDEST SWAP1 POP DUP2 PUSH1 0x3 ADD SLOAD DUP2 GT ISZERO PUSH2 0x479 JUMPI PUSH1 0x40 MLOAD PUSH32 0x8C379A000000000000000000000000000000000000000000000000000000000 DUP2 MSTORE PUSH1 0x4 ADD PUSH2 0x470 SWAP1 PUSH2 0xCAA JUMP JUMPDEST PUSH1 0x40 MLOAD DUP1 SWAP2 SUB SWAP1 REVERT JUMPDEST PUSH1 0x0 DUP3 PUSH1 0x1 ADD SLOAD DUP8 LT ISZERO PUSH2 0x4B1 JUMPI DUP7 DUP4 PUSH1 0x1 ADD PUSH1 0x0 DUP3 DUP3 SLOAD PUSH2 0x49B SWAP2 SWAP1 PUSH2 0xB2C JUMP JUMPDEST SWAP3 POP POP DUP2 SWAP1 SSTORE POP PUSH1 0x0 DUP2 SWAP5 POP SWAP5 POP POP POP POP PUSH2 0x4D8 JUMP JUMPDEST DUP3 PUSH1 0x1 ADD SLOAD DUP8 PUSH2 0x4C1 SWAP2 SWAP1 PUSH2 0xB2C JUMP JUMPDEST SWAP1 POP PUSH1 0x0 DUP4 PUSH1 0x1 ADD DUP2 SWAP1 SSTORE POP PUSH1 0x1 DUP2 SWAP5 POP SWAP5 POP POP POP POP JUMPDEST SWAP3 POP SWAP3 SWAP1 POP JUMP JUMPDEST PUSH1 0x2 PUSH1 0x20 MSTORE DUP1 PUSH1 0x0 MSTORE PUSH1 0x40 PUSH1 0x0 KECCAK256 PUSH1 0x0 SWAP2 POP SWAP1 POP DUP1 PUSH1 0x0 ADD SLOAD SWAP1 DUP1 PUSH1 0x1 ADD SLOAD SWAP1 DUP1 PUSH1 0x2 ADD SLOAD SWAP1 DUP1 PUSH1 0x3 ADD SLOAD SWAP1 POP DUP5 JUMP JUMPDEST PUSH2 0x517 PUSH2 0x6C3 JUMP JUMPDEST PUSH1 0x0 PUSH1 0x2 PUSH1 0x0 DUP4 PUSH20 0xFFFFFFFFFFFFFFFFFFFFFFFFFFFFFFFFFFFFFFFF AND PUSH20 0xFFFFFFFFFFFFFFFFFFFFFFFFFFFFFFFFFFFFFFFF AND DUP2 MSTORE PUSH1 0x20 ADD SWAP1 DUP2 MSTORE PUSH1 0x20 ADD PUSH1 0x0 KECCAK256 SWAP1 POP PUSH1 0x64 DUP2 PUSH1 0x0 ADD SLOAD LT ISZERO PUSH2 0x5A2 JUMPI PUSH1 0x40 MLOAD PUSH32 0x8C379A000000000000000000000000000000000000000000000000000000000 DUP2 MSTORE PUSH1 0x4 ADD PUSH2 0x599 SWAP1 PUSH2 0xD16 JUMP JUMPDEST PUSH1 0x40 MLOAD DUP1 SWAP2 SUB SWAP1 REVERT JUMPDEST PUSH1 0x0 DUP2 PUSH1 0x1 ADD SLOAD EQ PUSH2 0x5E9 JUMPI PUSH1 0x40 MLOAD PUSH32 0x8C379A000000000000000000000000000000000000000000000000000000000 DUP2 MSTORE PUSH1 0x4 ADD PUSH2 0x5E0 SWAP1 PUSH2 0xD82 JUMP JUMPDEST PUSH1 0x40 MLOAD DUP1 SWAP2 SUB SWAP1 REVERT JUMPDEST TIMESTAMP DUP2 PUSH1 0x2 ADD DUP2 SWAP1 SSTORE POP DUP3 DUP2 PUSH1 0x3 ADD DUP2 SWAP1 SSTORE POP PUSH5 0x496CEBB800 DUP4 PUSH1 0x1 SLOAD DUP7 PUSH2 0x610 SWAP2 SWAP1 PUSH2 0xDA2 JUMP JUMPDEST PUSH2 0x61A SWAP2 SWAP1 PUSH2 0xDA2 JUMP JUMPDEST PUSH2 0x624 SWAP2 SWAP1 PUSH2 0xE13 JUMP JUMPDEST DUP5 PUSH2 0x62F SWAP2 SWAP1 PUSH2 0xA7B JUMP JUMPDEST DUP2 PUSH1 0x1 ADD DUP2 SWAP1 SSTORE POP POP POP POP POP JUMP JUMPDEST PUSH2 0x645 PUSH2 0x6C3 JUMP JUMPDEST PUSH1 0x0 PUSH20 0xFFFFFFFFFFFFFFFFFFFFFFFFFFFFFFFFFFFFFFFF AND DUP2 PUSH20 0xFFFFFFFFFFFFFFFFFFFFFFFFFFFFFFFFFFFFFFFF AND SUB PUSH2 0x6B7 JUMPI PUSH1 0x0 PUSH1 0x40 MLOAD PUSH32 0x1E4FBDF700000000000000000000000000000000000000000000000000000000 DUP2 MSTORE PUSH1 0x4 ADD PUSH2 0x6AE SWAP2 SWAP1 PUSH2 0x955 JUMP JUMPDEST PUSH1 0x40 MLOAD DUP1 SWAP2 SUB SWAP1 REVERT JUMPDEST PUSH2 0x6C0 DUP2 PUSH2 0x74A JUMP JUMPDEST POP JUMP JUMPDEST PUSH2 0x6CB PUSH2 0x80E JUMP JUMPDEST PUSH20 0xFFFFFFFFFFFFFFFFFFFFFFFFFFFFFFFFFFFFFFFF AND PUSH2 0x6E9 PUSH2 0x35F JUMP JUMPDEST PUSH20 0xFFFFFFFFFFFFFFFFFFFFFFFFFFFFFFFFFFFFFFFF AND EQ PUSH2 0x748 JUMPI PUSH2 0x70C PUSH2 0x80E JUMP JUMPDEST PUSH1 0x40 MLOAD PUSH32 0x118CDAA700000000000000000000000000000000000000000000000000000000 DUP2 MSTORE PUSH1 0x4 ADD PUSH2 0x73F SWAP2 SWAP1 PUSH2 0x955 JUMP JUMPDEST PUSH1 0x40 MLOAD DUP1 SWAP2 SUB SWAP1 REVERT JUMPDEST JUMP JUMPDEST PUSH1 0x0 DUP1 PUSH1 0x0 SWAP1 SLOAD SWAP1 PUSH2 0x100 EXP SWAP1 DIV PUSH20 0xFFFFFFFFFFFFFFFFFFFFFFFFFFFFFFFFFFFFFFFF AND SWAP1 POP DUP2 PUSH1 0x0 DUP1 PUSH2 0x100 EXP DUP2 SLOAD DUP2 PUSH20 0xFFFFFFFFFFFFFFFFFFFFFFFFFFFFFFFFFFFFFFFF MUL NOT AND SWAP1 DUP4 PUSH20 0xFFFFFFFFFFFFFFFFFFFFFFFFFFFFFFFFFFFFFFFF AND MUL OR SWAP1 SSTORE POP DUP2 PUSH20 0xFFFFFFFFFFFFFFFFFFFFFFFFFFFFFFFFFFFFFFFF AND DUP2 PUSH20 0xFFFFFFFFFFFFFFFFFFFFFFFFFFFFFFFFFFFFFFFF AND PUSH32 0x8BE0079C531659141344CD1FD0A4F28419497F9722A3DAAFE3B4186F6B6457E0 PUSH1 0x40 MLOAD PUSH1 0x40 MLOAD DUP1 SWAP2 SUB SWAP1 LOG3 POP POP JUMP JUMPDEST PUSH1 0x0 CALLER SWAP1 POP SWAP1 JUMP JUMPDEST PUSH1 0x0 DUP1 REVERT JUMPDEST PUSH1 0x0 DUP2 SWAP1 POP SWAP2 SWAP1 POP JUMP JUMPDEST PUSH2 0x82E DUP2 PUSH2 0x81B JUMP JUMPDEST DUP2 EQ PUSH2 0x839 JUMPI PUSH1 0x0 DUP1 REVERT JUMPDEST POP JUMP JUMPDEST PUSH1 0x0 DUP2 CALLDATALOAD SWAP1 POP PUSH2 0x84B DUP2 PUSH2 0x825 JUMP JUMPDEST SWAP3 SWAP2 POP POP JUMP JUMPDEST PUSH1 0x0 PUSH20 0xFFFFFFFFFFFFFFFFFFFFFFFFFFFFFFFFFFFFFFFF DUP3 AND SWAP1 POP SWAP2 SWAP1 POP JUMP JUMPDEST PUSH1 0x0 PUSH2 0x87C DUP3 PUSH2 0x851 JUMP JUMPDEST SWAP1 POP SWAP2 SWAP1 POP JUMP JUMPDEST PUSH2 0x88C DUP2 PUSH2 0x871 JUMP JUMPDEST DUP2 EQ PUSH2 0x897 JUMPI PUSH1 0x0 DUP1 REVERT JUMPDEST POP JUMP JUMPDEST PUSH1 0x0 DUP2 CALLDATALOAD SWAP1 POP PUSH2 0x8A9 DUP2 PUSH2 0x883 JUMP JUMPDEST SWAP3 SWAP2 POP POP JUMP JUMPDEST PUSH1 0x0 DUP1 PUSH1 0x40 DUP4 DUP6 SUB SLT ISZERO PUSH2 0x8C6 JUMPI PUSH2 0x8C5 PUSH2 0x816 JUMP JUMPDEST JUMPDEST PUSH1 0x0 PUSH2 0x8D4 DUP6 DUP3 DUP7 ADD PUSH2 0x83C JUMP JUMPDEST SWAP3 POP POP PUSH1 0x20 PUSH2 0x8E5 DUP6 DUP3 DUP7 ADD PUSH2 0x89A JUMP JUMPDEST SWAP2 POP POP SWAP3 POP SWAP3 SWAP1 POP JUMP JUMPDEST PUSH2 0x8F8 DUP2 PUSH2 0x81B JUMP JUMPDEST DUP3 MSTORE POP POP JUMP JUMPDEST PUSH1 0x0 PUSH1 0x20 DUP3 ADD SWAP1 POP PUSH2 0x913 PUSH1 0x0 DUP4 ADD DUP5 PUSH2 0x8EF JUMP JUMPDEST SWAP3 SWAP2 POP POP JUMP JUMPDEST PUSH1 0x0 PUSH1 0x20 DUP3 DUP5 SUB SLT ISZERO PUSH2 0x92F JUMPI PUSH2 0x92E PUSH2 0x816 JUMP JUMPDEST JUMPDEST PUSH1 0x0 PUSH2 0x93D DUP5 DUP3 DUP6 ADD PUSH2 0x89A JUMP JUMPDEST SWAP2 POP POP SWAP3 SWAP2 POP POP JUMP JUMPDEST PUSH2 0x94F DUP2 PUSH2 0x871 JUMP JUMPDEST DUP3 MSTORE POP POP JUMP JUMPDEST PUSH1 0x0 PUSH1 0x20 DUP3 ADD SWAP1 POP PUSH2 0x96A PUSH1 0x0 DUP4 ADD DUP5 PUSH2 0x946 JUMP JUMPDEST SWAP3 SWAP2 POP POP JUMP JUMPDEST PUSH1 0x0 DUP2 ISZERO ISZERO SWAP1 POP SWAP2 SWAP1 POP JUMP JUMPDEST PUSH2 0x985 DUP2 PUSH2 0x970 JUMP JUMPDEST DUP3 MSTORE POP POP JUMP JUMPDEST PUSH1 0x0 PUSH1 0x40 DUP3 ADD SWAP1 POP PUSH2 0x9A0 PUSH1 0x0 DUP4 ADD DUP6 PUSH2 0x97C JUMP JUMPDEST PUSH2 0x9AD PUSH1 0x20 DUP4 ADD DUP5 PUSH2 0x8EF JUMP JUMPDEST SWAP4 SWAP3 POP POP POP JUMP JUMPDEST PUSH1 0x0 PUSH1 0x80 DUP3 ADD SWAP1 POP PUSH2 0x9C9 PUSH1 0x0 DUP4 ADD DUP8 PUSH2 0x8EF JUMP JUMPDEST PUSH2 0x9D6 PUSH1 0x20 DUP4 ADD DUP7 PUSH2 0x8EF JUMP JUMPDEST PUSH2 0x9E3 PUSH1 0x40 DUP4 ADD DUP6 PUSH2 0x8EF JUMP JUMPDEST PUSH2 0x9F0 PUSH1 0x60 DUP4 ADD DUP5 PUSH2 0x8EF JUMP JUMPDEST SWAP6 SWAP5 POP POP POP POP POP JUMP JUMPDEST PUSH1 0x0 DUP1 PUSH1 0x0 PUSH1 0x60 DUP5 DUP7 SUB SLT ISZERO PUSH2 0xA12 JUMPI PUSH2 0xA11 PUSH2 0x816 JUMP JUMPDEST JUMPDEST PUSH1 0x0 PUSH2 0xA20 DUP7 DUP3 DUP8 ADD PUSH2 0x83C JUMP JUMPDEST SWAP4 POP POP PUSH1 0x20 PUSH2 0xA31 DUP7 DUP3 DUP8 ADD PUSH2 0x83C JUMP JUMPDEST SWAP3 POP POP PUSH1 0x40 PUSH2 0xA42 DUP7 DUP3 DUP8 ADD PUSH2 0x89A JUMP JUMPDEST SWAP2 POP POP SWAP3 POP SWAP3 POP SWAP3 JUMP JUMPDEST PUSH32 0x4E487B7100000000000000000000000000000000000000000000000000000000 PUSH1 0x0 MSTORE PUSH1 0x11 PUSH1 0x4 MSTORE PUSH1 0x24 PUSH1 0x0 REVERT JUMPDEST PUSH1 0x0 PUSH2 0xA86 DUP3 PUSH2 0x81B JUMP JUMPDEST SWAP2 POP PUSH2 0xA91 DUP4 PUSH2 0x81B JUMP JUMPDEST SWAP3 POP DUP3 DUP3 ADD SWAP1 POP DUP1 DUP3 GT ISZERO PUSH2 0xAA9 JUMPI PUSH2 0xAA8 PUSH2 0xA4C JUMP JUMPDEST JUMPDEST SWAP3 SWAP2 POP POP JUMP JUMPDEST PUSH1 0x0 DUP3 DUP3 MSTORE PUSH1 0x20 DUP3 ADD SWAP1 POP SWAP3 SWAP2 POP POP JUMP JUMPDEST PUSH32 0x4E6F20636F6C6C61746572616C20746F20636C61696D00000000000000000000 PUSH1 0x0 DUP3 ADD MSTORE POP JUMP JUMPDEST PUSH1 0x0 PUSH2 0xAF6 PUSH1 0x16 DUP4 PUSH2 0xAAF JUMP JUMPDEST SWAP2 POP PUSH2 0xB01 DUP3 PUSH2 0xAC0 JUMP JUMPDEST PUSH1 0x20 DUP3 ADD SWAP1 POP SWAP2 SWAP1 POP JUMP JUMPDEST PUSH1 0x0 PUSH1 0x20 DUP3 ADD SWAP1 POP DUP2 DUP2 SUB PUSH1 0x0 DUP4 ADD MSTORE PUSH2 0xB25 DUP2 PUSH2 0xAE9 JUMP JUMPDEST SWAP1 POP SWAP2 SWAP1 POP JUMP JUMPDEST PUSH1 0x0 PUSH2 0xB37 DUP3 PUSH2 0x81B JUMP JUMPDEST SWAP2 POP PUSH2 0xB42 DUP4 PUSH2 0x81B JUMP JUMPDEST SWAP3 POP DUP3 DUP3 SUB SWAP1 POP DUP2 DUP2 GT ISZERO PUSH2 0xB5A JUMPI PUSH2 0xB59 PUSH2 0xA4C JUMP JUMPDEST JUMPDEST SWAP3 SWAP2 POP POP JUMP JUMPDEST PUSH32 0x4C6F616E206475726174696F6E206E6F74206578636565646564000000000000 PUSH1 0x0 DUP3 ADD MSTORE POP JUMP JUMPDEST PUSH1 0x0 PUSH2 0xB96 PUSH1 0x1A DUP4 PUSH2 0xAAF JUMP JUMPDEST SWAP2 POP PUSH2 0xBA1 DUP3 PUSH2 0xB60 JUMP JUMPDEST PUSH1 0x20 DUP3 ADD SWAP1 POP SWAP2 SWAP1 POP JUMP JUMPDEST PUSH1 0x0 PUSH1 0x20 DUP3 ADD SWAP1 POP DUP2 DUP2 SUB PUSH1 0x0 DUP4 ADD MSTORE PUSH2 0xBC5 DUP2 PUSH2 0xB89 JUMP JUMPDEST SWAP1 POP SWAP2 SWAP1 POP JUMP JUMPDEST PUSH32 0x52657061796D656E7420616D6F756E74206D7573742062652067726561746572 PUSH1 0x0 DUP3 ADD MSTORE PUSH32 0x207468616E207A65726F00000000000000000000000000000000000000000000 PUSH1 0x20 DUP3 ADD MSTORE POP JUMP JUMPDEST PUSH1 0x0 PUSH2 0xC28 PUSH1 0x2A DUP4 PUSH2 0xAAF JUMP JUMPDEST SWAP2 POP PUSH2 0xC33 DUP3 PUSH2 0xBCC JUMP JUMPDEST PUSH1 0x40 DUP3 ADD SWAP1 POP SWAP2 SWAP1 POP JUMP JUMPDEST PUSH1 0x0 PUSH1 0x20 DUP3 ADD SWAP1 POP DUP2 DUP2 SUB PUSH1 0x0 DUP4 ADD MSTORE PUSH2 0xC57 DUP2 PUSH2 0xC1B JUMP JUMPDEST SWAP1 POP SWAP2 SWAP1 POP JUMP JUMPDEST PUSH32 0x4C6F616E206475726174696F6E20657863656564656400000000000000000000 PUSH1 0x0 DUP3 ADD MSTORE POP JUMP JUMPDEST PUSH1 0x0 PUSH2 0xC94 PUSH1 0x16 DUP4 PUSH2 0xAAF JUMP JUMPDEST SWAP2 POP PUSH2 0xC9F DUP3 PUSH2 0xC5E JUMP JUMPDEST PUSH1 0x20 DUP3 ADD SWAP1 POP SWAP2 SWAP1 POP JUMP JUMPDEST PUSH1 0x0 PUSH1 0x20 DUP3 ADD SWAP1 POP DUP2 DUP2 SUB PUSH1 0x0 DUP4 ADD MSTORE PUSH2 0xCC3 DUP2 PUSH2 0xC87 JUMP JUMPDEST SWAP1 POP SWAP2 SWAP1 POP JUMP JUMPDEST PUSH32 0x4E6F7420656E6F756768207374616B656420746F6B656E730000000000000000 PUSH1 0x0 DUP3 ADD MSTORE POP JUMP JUMPDEST PUSH1 0x0 PUSH2 0xD00 PUSH1 0x18 DUP4 PUSH2 0xAAF JUMP JUMPDEST SWAP2 POP PUSH2 0xD0B DUP3 PUSH2 0xCCA JUMP JUMPDEST PUSH1 0x20 DUP3 ADD SWAP1 POP SWAP2 SWAP1 POP JUMP JUMPDEST PUSH1 0x0 PUSH1 0x20 DUP3 ADD SWAP1 POP DUP2 DUP2 SUB PUSH1 0x0 DUP4 ADD MSTORE PUSH2 0xD2F DUP2 PUSH2 0xCF3 JUMP JUMPDEST SWAP1 POP SWAP2 SWAP1 POP JUMP JUMPDEST PUSH32 0x506C7A2072657061792070726576696F7573206C6F616E000000000000000000 PUSH1 0x0 DUP3 ADD MSTORE POP JUMP JUMPDEST PUSH1 0x0 PUSH2 0xD6C PUSH1 0x17 DUP4 PUSH2 0xAAF JUMP JUMPDEST SWAP2 POP PUSH2 0xD77 DUP3 PUSH2 0xD36 JUMP JUMPDEST PUSH1 0x20 DUP3 ADD SWAP1 POP SWAP2 SWAP1 POP JUMP JUMPDEST PUSH1 0x0 PUSH1 0x20 DUP3 ADD SWAP1 POP DUP2 DUP2 SUB PUSH1 0x0 DUP4 ADD MSTORE PUSH2 0xD9B DUP2 PUSH2 0xD5F JUMP JUMPDEST SWAP1 POP SWAP2 SWAP1 POP JUMP JUMPDEST PUSH1 0x0 PUSH2 0xDAD DUP3 PUSH2 0x81B JUMP JUMPDEST SWAP2 POP PUSH2 0xDB8 DUP4 PUSH2 0x81B JUMP JUMPDEST SWAP3 POP DUP3 DUP3 MUL PUSH2 0xDC6 DUP2 PUSH2 0x81B JUMP JUMPDEST SWAP2 POP DUP3 DUP3 DIV DUP5 EQ DUP4 ISZERO OR PUSH2 0xDDD JUMPI PUSH2 0xDDC PUSH2 0xA4C JUMP JUMPDEST JUMPDEST POP SWAP3 SWAP2 POP POP JUMP JUMPDEST PUSH32 0x4E487B7100000000000000000000000000000000000000000000000000000000 PUSH1 0x0 MSTORE PUSH1 0x12 PUSH1 0x4 MSTORE PUSH1 0x24 PUSH1 0x0 REVERT JUMPDEST PUSH1 0x0 PUSH2 0xE1E DUP3 PUSH2 0x81B JUMP JUMPDEST SWAP2 POP PUSH2 0xE29 DUP4 PUSH2 0x81B JUMP JUMPDEST SWAP3 POP DUP3 PUSH2 0xE39 JUMPI PUSH2 0xE38 PUSH2 0xDE4 JUMP JUMPDEST JUMPDEST DUP3 DUP3 DIV SWAP1 POP SWAP3 SWAP2 POP POP JUMP INVALID LOG2 PUSH5 0x6970667358 0x22 SLT KECCAK256 MOD CODESIZE DUP3 SHR PUSH25 0x5D72D18EA6318046EE6288B1A8C88CC3ECC7034F86DFBCF5D1 PUSH1 0x87 PUSH5 0x736F6C6343 STOP ADDMOD XOR STOP CALLER "
        },
        "methodIdentifiers": {
          "borrow(uint256,uint256,address)": "d6bda0c0",
          "borrowers(address)": "bf5d50c4",
          "claimCollateral(address)": "8235b284",
          "collateralAmount()": "92d09ceb",
          "interestRate()": "7c3a00fd",
          "owner()": "8da5cb5b",
          "renounceOwnership()": "715018a6",
          "repay(uint256,address)": "acb70815",
          "stakeTokens(uint256,address)": "0bea440d",
          "transferOwnership(address)": "f2fde38b"
        }
      }
    }
  }
}