{
  "contracts/Borrower.sol": {
    "Borrower": {
      "abi": [
        {
          "inputs": [
            {
              "internalType": "uint256",
              "name": "_interestRate",
              "type": "uint256"
            }
          ],
          "stateMutability": "nonpayable",
          "type": "constructor"
        },
        {
          "inputs": [
            {
              "internalType": "address",
              "name": "owner",
              "type": "address"
            }
          ],
          "name": "OwnableInvalidOwner",
          "type": "error"
        },
        {
          "inputs": [
            {
              "internalType": "address",
              "name": "account",
              "type": "address"
            }
          ],
          "name": "OwnableUnauthorizedAccount",
          "type": "error"
        },
        {
          "anonymous": false,
          "inputs": [
            {
              "indexed": true,
              "internalType": "address",
              "name": "previousOwner",
              "type": "address"
            },
            {
              "indexed": true,
              "internalType": "address",
              "name": "newOwner",
              "type": "address"
            }
          ],
          "name": "OwnershipTransferred",
          "type": "event"
        },
        {
          "inputs": [
            {
              "internalType": "uint256",
              "name": "_amount",
              "type": "uint256"
            },
            {
              "internalType": "uint256",
              "name": "_loanDuration",
              "type": "uint256"
            },
            {
              "internalType": "address",
              "name": "_borrowerAddress",
              "type": "address"
            }
          ],
          "name": "borrow",
          "outputs": [],
          "stateMutability": "nonpayable",
          "type": "function"
        },
        {
          "inputs": [
            {
              "internalType": "address",
              "name": "",
              "type": "address"
            }
          ],
          "name": "borrowers",
          "outputs": [
            {
              "internalType": "uint256",
              "name": "stackedTokens",
              "type": "uint256"
            },
            {
              "internalType": "uint256",
              "name": "loanAmount",
              "type": "uint256"
            },
            {
              "internalType": "uint256",
              "name": "repaymentAmount",
              "type": "uint256"
            },
            {
              "internalType": "uint256",
              "name": "borrowTime",
              "type": "uint256"
            },
            {
              "internalType": "uint256",
              "name": "loanDuration",
              "type": "uint256"
            }
          ],
          "stateMutability": "view",
          "type": "function"
        },
        {
          "inputs": [
            {
              "internalType": "address",
              "name": "_borrowerAddress",
              "type": "address"
            }
          ],
          "name": "claimCollateral",
          "outputs": [],
          "stateMutability": "nonpayable",
          "type": "function"
        },
        {
          "inputs": [],
          "name": "collateralAmount",
          "outputs": [
            {
              "internalType": "uint256",
              "name": "",
              "type": "uint256"
            }
          ],
          "stateMutability": "view",
          "type": "function"
        },
        {
          "inputs": [],
          "name": "interestRate",
          "outputs": [
            {
              "internalType": "uint256",
              "name": "",
              "type": "uint256"
            }
          ],
          "stateMutability": "view",
          "type": "function"
        },
        {
          "inputs": [],
          "name": "owner",
          "outputs": [
            {
              "internalType": "address",
              "name": "",
              "type": "address"
            }
          ],
          "stateMutability": "view",
          "type": "function"
        },
        {
          "inputs": [],
          "name": "renounceOwnership",
          "outputs": [],
          "stateMutability": "nonpayable",
          "type": "function"
        },
        {
          "inputs": [
            {
              "internalType": "uint256",
              "name": "_amount",
              "type": "uint256"
            },
            {
              "internalType": "address",
              "name": "_borrowerAddress",
              "type": "address"
            }
          ],
          "name": "repay",
          "outputs": [
            {
              "internalType": "uint256",
              "name": "",
              "type": "uint256"
            }
          ],
          "stateMutability": "nonpayable",
          "type": "function"
        },
        {
          "inputs": [
            {
              "internalType": "address",
              "name": "_borrowerAddress",
              "type": "address"
            }
          ],
          "name": "resetStackedTokens",
          "outputs": [],
          "stateMutability": "nonpayable",
          "type": "function"
        },
        {
          "inputs": [
            {
              "internalType": "uint256",
              "name": "_stackedTokens",
              "type": "uint256"
            },
            {
              "internalType": "address",
              "name": "_borrowerAddress",
              "type": "address"
            }
          ],
          "name": "stakeTokens",
          "outputs": [],
          "stateMutability": "nonpayable",
          "type": "function"
        },
        {
          "inputs": [
            {
              "internalType": "address",
              "name": "newOwner",
              "type": "address"
            }
          ],
          "name": "transferOwnership",
          "outputs": [],
          "stateMutability": "nonpayable",
          "type": "function"
        }
      ],
      "evm": {
        "bytecode": {
          "linkReferences": {},
          "object": "60806040523480156200001157600080fd5b5060405162001174380380620011748339818101604052810190620000379190620001d1565b33600073ffffffffffffffffffffffffffffffffffffffff168173ffffffffffffffffffffffffffffffffffffffff1603620000ad5760006040517f1e4fbdf7000000000000000000000000000000000000000000000000000000008152600401620000a4919062000248565b60405180910390fd5b620000be81620000cd60201b60201c565b50806001819055505062000265565b60008060009054906101000a900473ffffffffffffffffffffffffffffffffffffffff169050816000806101000a81548173ffffffffffffffffffffffffffffffffffffffff021916908373ffffffffffffffffffffffffffffffffffffffff1602179055508173ffffffffffffffffffffffffffffffffffffffff168173ffffffffffffffffffffffffffffffffffffffff167f8be0079c531659141344cd1fd0a4f28419497f9722a3daafe3b4186f6b6457e060405160405180910390a35050565b600080fd5b6000819050919050565b620001ab8162000196565b8114620001b757600080fd5b50565b600081519050620001cb81620001a0565b92915050565b600060208284031215620001ea57620001e962000191565b5b6000620001fa84828501620001ba565b91505092915050565b600073ffffffffffffffffffffffffffffffffffffffff82169050919050565b6000620002308262000203565b9050919050565b620002428162000223565b82525050565b60006020820190506200025f600083018462000237565b92915050565b610eff80620002756000396000f3fe608060405234801561001057600080fd5b50600436106100a95760003560e01c80639106175911610071578063910617591461012c57806392d09ceb14610148578063acb7081514610166578063bf5d50c414610196578063d6bda0c0146101ca578063f2fde38b146101e6576100a9565b80630bea440d146100ae578063715018a6146100ca5780637c3a00fd146100d45780638235b284146100f25780638da5cb5b1461010e575b600080fd5b6100c860048036038101906100c3919061096a565b610202565b005b6100d2610267565b005b6100dc61027b565b6040516100e991906109b9565b60405180910390f35b61010c600480360381019061010791906109d4565b610281565b005b6101166103a4565b6040516101239190610a10565b60405180910390f35b610146600480360381019061014191906109d4565b6103cd565b005b610150610420565b60405161015d91906109b9565b60405180910390f35b610180600480360381019061017b919061096a565b610425565b60405161018d91906109b9565b60405180910390f35b6101b060048036038101906101ab91906109d4565b61058b565b6040516101c1959493929190610a2b565b60405180910390f35b6101e460048036038101906101df9190610a7e565b6105c1565b005b61020060048036038101906101fb91906109d4565b6106f8565b005b61020a61077e565b81600260008373ffffffffffffffffffffffffffffffffffffffff1673ffffffffffffffffffffffffffffffffffffffff168152602001908152602001600020600001600082825461025c9190610b00565b925050819055505050565b61026f61077e565b6102796000610805565b565b60015481565b61028961077e565b6000600260008373ffffffffffffffffffffffffffffffffffffffff1673ffffffffffffffffffffffffffffffffffffffff16815260200190815260200160002090506000816000015411610313576040517f08c379a000000000000000000000000000000000000000000000000000000000815260040161030a90610b91565b60405180910390fd5b60008160030154426103259190610bb1565b90508160040154811161036d576040517f08c379a000000000000000000000000000000000000000000000000000000000815260040161036490610c31565b60405180910390fd5b6000826000018190555060008260020181905550600082600301819055506000826004018190555060008260010181905550505050565b60008060009054906101000a900473ffffffffffffffffffffffffffffffffffffffff16905090565b6103d561077e565b6000600260008373ffffffffffffffffffffffffffffffffffffffff1673ffffffffffffffffffffffffffffffffffffffff1681526020019081526020016000206000018190555050565b606481565b600061042f61077e565b60008311610472576040517f08c379a000000000000000000000000000000000000000000000000000000000815260040161046990610cc3565b60405180910390fd5b6000600260008473ffffffffffffffffffffffffffffffffffffffff1673ffffffffffffffffffffffffffffffffffffffff168152602001908152602001600020905060008160030154426104c79190610bb1565b90508160040154811115610510576040517f08c379a000000000000000000000000000000000000000000000000000000000815260040161050790610d2f565b60405180910390fd5b6000826002015486101561054457858360020160008282546105329190610bb1565b92505081905550809350505050610585565b8260020154866105549190610bb1565b9050600083600201819055506000836003018190555060008360040181905550600083600101819055508093505050505b92915050565b60026020528060005260406000206000915090508060000154908060010154908060020154908060030154908060040154905085565b6105c961077e565b6000600260008373ffffffffffffffffffffffffffffffffffffffff1673ffffffffffffffffffffffffffffffffffffffff1681526020019081526020016000209050606481600001541015610654576040517f08c379a000000000000000000000000000000000000000000000000000000000815260040161064b90610d9b565b60405180910390fd5b600081600201541461069b576040517f08c379a000000000000000000000000000000000000000000000000000000000815260040161069290610e07565b60405180910390fd5b42816003018190555082816004018190555083816001018190555064496cebb80083600154866106cb9190610e27565b6106d59190610e27565b6106df9190610e98565b846106ea9190610b00565b816002018190555050505050565b61070061077e565b600073ffffffffffffffffffffffffffffffffffffffff168173ffffffffffffffffffffffffffffffffffffffff16036107725760006040517f1e4fbdf70000000000000000000000000000000000000000000000000000000081526004016107699190610a10565b60405180910390fd5b61077b81610805565b50565b6107866108c9565b73ffffffffffffffffffffffffffffffffffffffff166107a46103a4565b73ffffffffffffffffffffffffffffffffffffffff1614610803576107c76108c9565b6040517f118cdaa70000000000000000000000000000000000000000000000000000000081526004016107fa9190610a10565b60405180910390fd5b565b60008060009054906101000a900473ffffffffffffffffffffffffffffffffffffffff169050816000806101000a81548173ffffffffffffffffffffffffffffffffffffffff021916908373ffffffffffffffffffffffffffffffffffffffff1602179055508173ffffffffffffffffffffffffffffffffffffffff168173ffffffffffffffffffffffffffffffffffffffff167f8be0079c531659141344cd1fd0a4f28419497f9722a3daafe3b4186f6b6457e060405160405180910390a35050565b600033905090565b600080fd5b6000819050919050565b6108e9816108d6565b81146108f457600080fd5b50565b600081359050610906816108e0565b92915050565b600073ffffffffffffffffffffffffffffffffffffffff82169050919050565b60006109378261090c565b9050919050565b6109478161092c565b811461095257600080fd5b50565b6000813590506109648161093e565b92915050565b60008060408385031215610981576109806108d1565b5b600061098f858286016108f7565b92505060206109a085828601610955565b9150509250929050565b6109b3816108d6565b82525050565b60006020820190506109ce60008301846109aa565b92915050565b6000602082840312156109ea576109e96108d1565b5b60006109f884828501610955565b91505092915050565b610a0a8161092c565b82525050565b6000602082019050610a256000830184610a01565b92915050565b600060a082019050610a4060008301886109aa565b610a4d60208301876109aa565b610a5a60408301866109aa565b610a6760608301856109aa565b610a7460808301846109aa565b9695505050505050565b600080600060608486031215610a9757610a966108d1565b5b6000610aa5868287016108f7565b9350506020610ab6868287016108f7565b9250506040610ac786828701610955565b9150509250925092565b7f4e487b7100000000000000000000000000000000000000000000000000000000600052601160045260246000fd5b6000610b0b826108d6565b9150610b16836108d6565b9250828201905080821115610b2e57610b2d610ad1565b5b92915050565b600082825260208201905092915050565b7f4e6f20636f6c6c61746572616c20746f20636c61696d00000000000000000000600082015250565b6000610b7b601683610b34565b9150610b8682610b45565b602082019050919050565b60006020820190508181036000830152610baa81610b6e565b9050919050565b6000610bbc826108d6565b9150610bc7836108d6565b9250828203905081811115610bdf57610bde610ad1565b5b92915050565b7f4c6f616e206475726174696f6e206e6f74206578636565646564000000000000600082015250565b6000610c1b601a83610b34565b9150610c2682610be5565b602082019050919050565b60006020820190508181036000830152610c4a81610c0e565b9050919050565b7f52657061796d656e7420616d6f756e74206d757374206265206772656174657260008201527f207468616e207a65726f00000000000000000000000000000000000000000000602082015250565b6000610cad602a83610b34565b9150610cb882610c51565b604082019050919050565b60006020820190508181036000830152610cdc81610ca0565b9050919050565b7f4c6f616e206475726174696f6e20657863656564656400000000000000000000600082015250565b6000610d19601683610b34565b9150610d2482610ce3565b602082019050919050565b60006020820190508181036000830152610d4881610d0c565b9050919050565b7f4e6f7420656e6f756768207374616b656420746f6b656e730000000000000000600082015250565b6000610d85601883610b34565b9150610d9082610d4f565b602082019050919050565b60006020820190508181036000830152610db481610d78565b9050919050565b7f506c7a2072657061792070726576696f7573206c6f616e000000000000000000600082015250565b6000610df1601783610b34565b9150610dfc82610dbb565b602082019050919050565b60006020820190508181036000830152610e2081610de4565b9050919050565b6000610e32826108d6565b9150610e3d836108d6565b9250828202610e4b816108d6565b91508282048414831517610e6257610e61610ad1565b5b5092915050565b7f4e487b7100000000000000000000000000000000000000000000000000000000600052601260045260246000fd5b6000610ea3826108d6565b9150610eae836108d6565b925082610ebe57610ebd610e69565b5b82820490509291505056fea264697066735822122050a05c127ad84600bff8863d15ae646877cc87be3a828c4de08e2648af5cbf7c64736f6c63430008180033",
          "opcodes": "PUSH1 0x80 PUSH1 0x40 MSTORE CALLVALUE DUP1 ISZERO PUSH3 0x11 JUMPI PUSH1 0x0 DUP1 REVERT JUMPDEST POP PUSH1 0x40 MLOAD PUSH3 0x1174 CODESIZE SUB DUP1 PUSH3 0x1174 DUP4 CODECOPY DUP2 DUP2 ADD PUSH1 0x40 MSTORE DUP2 ADD SWAP1 PUSH3 0x37 SWAP2 SWAP1 PUSH3 0x1D1 JUMP JUMPDEST CALLER PUSH1 0x0 PUSH20 0xFFFFFFFFFFFFFFFFFFFFFFFFFFFFFFFFFFFFFFFF AND DUP2 PUSH20 0xFFFFFFFFFFFFFFFFFFFFFFFFFFFFFFFFFFFFFFFF AND SUB PUSH3 0xAD JUMPI PUSH1 0x0 PUSH1 0x40 MLOAD PUSH32 0x1E4FBDF700000000000000000000000000000000000000000000000000000000 DUP2 MSTORE PUSH1 0x4 ADD PUSH3 0xA4 SWAP2 SWAP1 PUSH3 0x248 JUMP JUMPDEST PUSH1 0x40 MLOAD DUP1 SWAP2 SUB SWAP1 REVERT JUMPDEST PUSH3 0xBE DUP2 PUSH3 0xCD PUSH1 0x20 SHL PUSH1 0x20 SHR JUMP JUMPDEST POP DUP1 PUSH1 0x1 DUP2 SWAP1 SSTORE POP POP PUSH3 0x265 JUMP JUMPDEST PUSH1 0x0 DUP1 PUSH1 0x0 SWAP1 SLOAD SWAP1 PUSH2 0x100 EXP SWAP1 DIV PUSH20 0xFFFFFFFFFFFFFFFFFFFFFFFFFFFFFFFFFFFFFFFF AND SWAP1 POP DUP2 PUSH1 0x0 DUP1 PUSH2 0x100 EXP DUP2 SLOAD DUP2 PUSH20 0xFFFFFFFFFFFFFFFFFFFFFFFFFFFFFFFFFFFFFFFF MUL NOT AND SWAP1 DUP4 PUSH20 0xFFFFFFFFFFFFFFFFFFFFFFFFFFFFFFFFFFFFFFFF AND MUL OR SWAP1 SSTORE POP DUP2 PUSH20 0xFFFFFFFFFFFFFFFFFFFFFFFFFFFFFFFFFFFFFFFF AND DUP2 PUSH20 0xFFFFFFFFFFFFFFFFFFFFFFFFFFFFFFFFFFFFFFFF AND PUSH32 0x8BE0079C531659141344CD1FD0A4F28419497F9722A3DAAFE3B4186F6B6457E0 PUSH1 0x40 MLOAD PUSH1 0x40 MLOAD DUP1 SWAP2 SUB SWAP1 LOG3 POP POP JUMP JUMPDEST PUSH1 0x0 DUP1 REVERT JUMPDEST PUSH1 0x0 DUP2 SWAP1 POP SWAP2 SWAP1 POP JUMP JUMPDEST PUSH3 0x1AB DUP2 PUSH3 0x196 JUMP JUMPDEST DUP2 EQ PUSH3 0x1B7 JUMPI PUSH1 0x0 DUP1 REVERT JUMPDEST POP JUMP JUMPDEST PUSH1 0x0 DUP2 MLOAD SWAP1 POP PUSH3 0x1CB DUP2 PUSH3 0x1A0 JUMP JUMPDEST SWAP3 SWAP2 POP POP JUMP JUMPDEST PUSH1 0x0 PUSH1 0x20 DUP3 DUP5 SUB SLT ISZERO PUSH3 0x1EA JUMPI PUSH3 0x1E9 PUSH3 0x191 JUMP JUMPDEST JUMPDEST PUSH1 0x0 PUSH3 0x1FA DUP5 DUP3 DUP6 ADD PUSH3 0x1BA JUMP JUMPDEST SWAP2 POP POP SWAP3 SWAP2 POP POP JUMP JUMPDEST PUSH1 0x0 PUSH20 0xFFFFFFFFFFFFFFFFFFFFFFFFFFFFFFFFFFFFFFFF DUP3 AND SWAP1 POP SWAP2 SWAP1 POP JUMP JUMPDEST PUSH1 0x0 PUSH3 0x230 DUP3 PUSH3 0x203 JUMP JUMPDEST SWAP1 POP SWAP2 SWAP1 POP JUMP JUMPDEST PUSH3 0x242 DUP2 PUSH3 0x223 JUMP JUMPDEST DUP3 MSTORE POP POP JUMP JUMPDEST PUSH1 0x0 PUSH1 0x20 DUP3 ADD SWAP1 POP PUSH3 0x25F PUSH1 0x0 DUP4 ADD DUP5 PUSH3 0x237 JUMP JUMPDEST SWAP3 SWAP2 POP POP JUMP JUMPDEST PUSH2 0xEFF DUP1 PUSH3 0x275 PUSH1 0x0 CODECOPY PUSH1 0x0 RETURN INVALID PUSH1 0x80 PUSH1 0x40 MSTORE CALLVALUE DUP1 ISZERO PUSH2 0x10 JUMPI PUSH1 0x0 DUP1 REVERT JUMPDEST POP PUSH1 0x4 CALLDATASIZE LT PUSH2 0xA9 JUMPI PUSH1 0x0 CALLDATALOAD PUSH1 0xE0 SHR DUP1 PUSH4 0x91061759 GT PUSH2 0x71 JUMPI DUP1 PUSH4 0x91061759 EQ PUSH2 0x12C JUMPI DUP1 PUSH4 0x92D09CEB EQ PUSH2 0x148 JUMPI DUP1 PUSH4 0xACB70815 EQ PUSH2 0x166 JUMPI DUP1 PUSH4 0xBF5D50C4 EQ PUSH2 0x196 JUMPI DUP1 PUSH4 0xD6BDA0C0 EQ PUSH2 0x1CA JUMPI DUP1 PUSH4 0xF2FDE38B EQ PUSH2 0x1E6 JUMPI PUSH2 0xA9 JUMP JUMPDEST DUP1 PUSH4 0xBEA440D EQ PUSH2 0xAE JUMPI DUP1 PUSH4 0x715018A6 EQ PUSH2 0xCA JUMPI DUP1 PUSH4 0x7C3A00FD EQ PUSH2 0xD4 JUMPI DUP1 PUSH4 0x8235B284 EQ PUSH2 0xF2 JUMPI DUP1 PUSH4 0x8DA5CB5B EQ PUSH2 0x10E JUMPI JUMPDEST PUSH1 0x0 DUP1 REVERT JUMPDEST PUSH2 0xC8 PUSH1 0x4 DUP1 CALLDATASIZE SUB DUP2 ADD SWAP1 PUSH2 0xC3 SWAP2 SWAP1 PUSH2 0x96A JUMP JUMPDEST PUSH2 0x202 JUMP JUMPDEST STOP JUMPDEST PUSH2 0xD2 PUSH2 0x267 JUMP JUMPDEST STOP JUMPDEST PUSH2 0xDC PUSH2 0x27B JUMP JUMPDEST PUSH1 0x40 MLOAD PUSH2 0xE9 SWAP2 SWAP1 PUSH2 0x9B9 JUMP JUMPDEST PUSH1 0x40 MLOAD DUP1 SWAP2 SUB SWAP1 RETURN JUMPDEST PUSH2 0x10C PUSH1 0x4 DUP1 CALLDATASIZE SUB DUP2 ADD SWAP1 PUSH2 0x107 SWAP2 SWAP1 PUSH2 0x9D4 JUMP JUMPDEST PUSH2 0x281 JUMP JUMPDEST STOP JUMPDEST PUSH2 0x116 PUSH2 0x3A4 JUMP JUMPDEST PUSH1 0x40 MLOAD PUSH2 0x123 SWAP2 SWAP1 PUSH2 0xA10 JUMP JUMPDEST PUSH1 0x40 MLOAD DUP1 SWAP2 SUB SWAP1 RETURN JUMPDEST PUSH2 0x146 PUSH1 0x4 DUP1 CALLDATASIZE SUB DUP2 ADD SWAP1 PUSH2 0x141 SWAP2 SWAP1 PUSH2 0x9D4 JUMP JUMPDEST PUSH2 0x3CD JUMP JUMPDEST STOP JUMPDEST PUSH2 0x150 PUSH2 0x420 JUMP JUMPDEST PUSH1 0x40 MLOAD PUSH2 0x15D SWAP2 SWAP1 PUSH2 0x9B9 JUMP JUMPDEST PUSH1 0x40 MLOAD DUP1 SWAP2 SUB SWAP1 RETURN JUMPDEST PUSH2 0x180 PUSH1 0x4 DUP1 CALLDATASIZE SUB DUP2 ADD SWAP1 PUSH2 0x17B SWAP2 SWAP1 PUSH2 0x96A JUMP JUMPDEST PUSH2 0x425 JUMP JUMPDEST PUSH1 0x40 MLOAD PUSH2 0x18D SWAP2 SWAP1 PUSH2 0x9B9 JUMP JUMPDEST PUSH1 0x40 MLOAD DUP1 SWAP2 SUB SWAP1 RETURN JUMPDEST PUSH2 0x1B0 PUSH1 0x4 DUP1 CALLDATASIZE SUB DUP2 ADD SWAP1 PUSH2 0x1AB SWAP2 SWAP1 PUSH2 0x9D4 JUMP JUMPDEST PUSH2 0x58B JUMP JUMPDEST PUSH1 0x40 MLOAD PUSH2 0x1C1 SWAP6 SWAP5 SWAP4 SWAP3 SWAP2 SWAP1 PUSH2 0xA2B JUMP JUMPDEST PUSH1 0x40 MLOAD DUP1 SWAP2 SUB SWAP1 RETURN JUMPDEST PUSH2 0x1E4 PUSH1 0x4 DUP1 CALLDATASIZE SUB DUP2 ADD SWAP1 PUSH2 0x1DF SWAP2 SWAP1 PUSH2 0xA7E JUMP JUMPDEST PUSH2 0x5C1 JUMP JUMPDEST STOP JUMPDEST PUSH2 0x200 PUSH1 0x4 DUP1 CALLDATASIZE SUB DUP2 ADD SWAP1 PUSH2 0x1FB SWAP2 SWAP1 PUSH2 0x9D4 JUMP JUMPDEST PUSH2 0x6F8 JUMP JUMPDEST STOP JUMPDEST PUSH2 0x20A PUSH2 0x77E JUMP JUMPDEST DUP2 PUSH1 0x2 PUSH1 0x0 DUP4 PUSH20 0xFFFFFFFFFFFFFFFFFFFFFFFFFFFFFFFFFFFFFFFF AND PUSH20 0xFFFFFFFFFFFFFFFFFFFFFFFFFFFFFFFFFFFFFFFF AND DUP2 MSTORE PUSH1 0x20 ADD SWAP1 DUP2 MSTORE PUSH1 0x20 ADD PUSH1 0x0 KECCAK256 PUSH1 0x0 ADD PUSH1 0x0 DUP3 DUP3 SLOAD PUSH2 0x25C SWAP2 SWAP1 PUSH2 0xB00 JUMP JUMPDEST SWAP3 POP POP DUP2 SWAP1 SSTORE POP POP POP JUMP JUMPDEST PUSH2 0x26F PUSH2 0x77E JUMP JUMPDEST PUSH2 0x279 PUSH1 0x0 PUSH2 0x805 JUMP JUMPDEST JUMP JUMPDEST PUSH1 0x1 SLOAD DUP2 JUMP JUMPDEST PUSH2 0x289 PUSH2 0x77E JUMP JUMPDEST PUSH1 0x0 PUSH1 0x2 PUSH1 0x0 DUP4 PUSH20 0xFFFFFFFFFFFFFFFFFFFFFFFFFFFFFFFFFFFFFFFF AND PUSH20 0xFFFFFFFFFFFFFFFFFFFFFFFFFFFFFFFFFFFFFFFF AND DUP2 MSTORE PUSH1 0x20 ADD SWAP1 DUP2 MSTORE PUSH1 0x20 ADD PUSH1 0x0 KECCAK256 SWAP1 POP PUSH1 0x0 DUP2 PUSH1 0x0 ADD SLOAD GT PUSH2 0x313 JUMPI PUSH1 0x40 MLOAD PUSH32 0x8C379A000000000000000000000000000000000000000000000000000000000 DUP2 MSTORE PUSH1 0x4 ADD PUSH2 0x30A SWAP1 PUSH2 0xB91 JUMP JUMPDEST PUSH1 0x40 MLOAD DUP1 SWAP2 SUB SWAP1 REVERT JUMPDEST PUSH1 0x0 DUP2 PUSH1 0x3 ADD SLOAD TIMESTAMP PUSH2 0x325 SWAP2 SWAP1 PUSH2 0xBB1 JUMP JUMPDEST SWAP1 POP DUP2 PUSH1 0x4 ADD SLOAD DUP2 GT PUSH2 0x36D JUMPI PUSH1 0x40 MLOAD PUSH32 0x8C379A000000000000000000000000000000000000000000000000000000000 DUP2 MSTORE PUSH1 0x4 ADD PUSH2 0x364 SWAP1 PUSH2 0xC31 JUMP JUMPDEST PUSH1 0x40 MLOAD DUP1 SWAP2 SUB SWAP1 REVERT JUMPDEST PUSH1 0x0 DUP3 PUSH1 0x0 ADD DUP2 SWAP1 SSTORE POP PUSH1 0x0 DUP3 PUSH1 0x2 ADD DUP2 SWAP1 SSTORE POP PUSH1 0x0 DUP3 PUSH1 0x3 ADD DUP2 SWAP1 SSTORE POP PUSH1 0x0 DUP3 PUSH1 0x4 ADD DUP2 SWAP1 SSTORE POP PUSH1 0x0 DUP3 PUSH1 0x1 ADD DUP2 SWAP1 SSTORE POP POP POP POP JUMP JUMPDEST PUSH1 0x0 DUP1 PUSH1 0x0 SWAP1 SLOAD SWAP1 PUSH2 0x100 EXP SWAP1 DIV PUSH20 0xFFFFFFFFFFFFFFFFFFFFFFFFFFFFFFFFFFFFFFFF AND SWAP1 POP SWAP1 JUMP JUMPDEST PUSH2 0x3D5 PUSH2 0x77E JUMP JUMPDEST PUSH1 0x0 PUSH1 0x2 PUSH1 0x0 DUP4 PUSH20 0xFFFFFFFFFFFFFFFFFFFFFFFFFFFFFFFFFFFFFFFF AND PUSH20 0xFFFFFFFFFFFFFFFFFFFFFFFFFFFFFFFFFFFFFFFF AND DUP2 MSTORE PUSH1 0x20 ADD SWAP1 DUP2 MSTORE PUSH1 0x20 ADD PUSH1 0x0 KECCAK256 PUSH1 0x0 ADD DUP2 SWAP1 SSTORE POP POP JUMP JUMPDEST PUSH1 0x64 DUP2 JUMP JUMPDEST PUSH1 0x0 PUSH2 0x42F PUSH2 0x77E JUMP JUMPDEST PUSH1 0x0 DUP4 GT PUSH2 0x472 JUMPI PUSH1 0x40 MLOAD PUSH32 0x8C379A000000000000000000000000000000000000000000000000000000000 DUP2 MSTORE PUSH1 0x4 ADD PUSH2 0x469 SWAP1 PUSH2 0xCC3 JUMP JUMPDEST PUSH1 0x40 MLOAD DUP1 SWAP2 SUB SWAP1 REVERT JUMPDEST PUSH1 0x0 PUSH1 0x2 PUSH1 0x0 DUP5 PUSH20 0xFFFFFFFFFFFFFFFFFFFFFFFFFFFFFFFFFFFFFFFF AND PUSH20 0xFFFFFFFFFFFFFFFFFFFFFFFFFFFFFFFFFFFFFFFF AND DUP2 MSTORE PUSH1 0x20 ADD SWAP1 DUP2 MSTORE PUSH1 0x20 ADD PUSH1 0x0 KECCAK256 SWAP1 POP PUSH1 0x0 DUP2 PUSH1 0x3 ADD SLOAD TIMESTAMP PUSH2 0x4C7 SWAP2 SWAP1 PUSH2 0xBB1 JUMP JUMPDEST SWAP1 POP DUP2 PUSH1 0x4 ADD SLOAD DUP2 GT ISZERO PUSH2 0x510 JUMPI PUSH1 0x40 MLOAD PUSH32 0x8C379A000000000000000000000000000000000000000000000000000000000 DUP2 MSTORE PUSH1 0x4 ADD PUSH2 0x507 SWAP1 PUSH2 0xD2F JUMP JUMPDEST PUSH1 0x40 MLOAD DUP1 SWAP2 SUB SWAP1 REVERT JUMPDEST PUSH1 0x0 DUP3 PUSH1 0x2 ADD SLOAD DUP7 LT ISZERO PUSH2 0x544 JUMPI DUP6 DUP4 PUSH1 0x2 ADD PUSH1 0x0 DUP3 DUP3 SLOAD PUSH2 0x532 SWAP2 SWAP1 PUSH2 0xBB1 JUMP JUMPDEST SWAP3 POP POP DUP2 SWAP1 SSTORE POP DUP1 SWAP4 POP POP POP POP PUSH2 0x585 JUMP JUMPDEST DUP3 PUSH1 0x2 ADD SLOAD DUP7 PUSH2 0x554 SWAP2 SWAP1 PUSH2 0xBB1 JUMP JUMPDEST SWAP1 POP PUSH1 0x0 DUP4 PUSH1 0x2 ADD DUP2 SWAP1 SSTORE POP PUSH1 0x0 DUP4 PUSH1 0x3 ADD DUP2 SWAP1 SSTORE POP PUSH1 0x0 DUP4 PUSH1 0x4 ADD DUP2 SWAP1 SSTORE POP PUSH1 0x0 DUP4 PUSH1 0x1 ADD DUP2 SWAP1 SSTORE POP DUP1 SWAP4 POP POP POP POP JUMPDEST SWAP3 SWAP2 POP POP JUMP JUMPDEST PUSH1 0x2 PUSH1 0x20 MSTORE DUP1 PUSH1 0x0 MSTORE PUSH1 0x40 PUSH1 0x0 KECCAK256 PUSH1 0x0 SWAP2 POP SWAP1 POP DUP1 PUSH1 0x0 ADD SLOAD SWAP1 DUP1 PUSH1 0x1 ADD SLOAD SWAP1 DUP1 PUSH1 0x2 ADD SLOAD SWAP1 DUP1 PUSH1 0x3 ADD SLOAD SWAP1 DUP1 PUSH1 0x4 ADD SLOAD SWAP1 POP DUP6 JUMP JUMPDEST PUSH2 0x5C9 PUSH2 0x77E JUMP JUMPDEST PUSH1 0x0 PUSH1 0x2 PUSH1 0x0 DUP4 PUSH20 0xFFFFFFFFFFFFFFFFFFFFFFFFFFFFFFFFFFFFFFFF AND PUSH20 0xFFFFFFFFFFFFFFFFFFFFFFFFFFFFFFFFFFFFFFFF AND DUP2 MSTORE PUSH1 0x20 ADD SWAP1 DUP2 MSTORE PUSH1 0x20 ADD PUSH1 0x0 KECCAK256 SWAP1 POP PUSH1 0x64 DUP2 PUSH1 0x0 ADD SLOAD LT ISZERO PUSH2 0x654 JUMPI PUSH1 0x40 MLOAD PUSH32 0x8C379A000000000000000000000000000000000000000000000000000000000 DUP2 MSTORE PUSH1 0x4 ADD PUSH2 0x64B SWAP1 PUSH2 0xD9B JUMP JUMPDEST PUSH1 0x40 MLOAD DUP1 SWAP2 SUB SWAP1 REVERT JUMPDEST PUSH1 0x0 DUP2 PUSH1 0x2 ADD SLOAD EQ PUSH2 0x69B JUMPI PUSH1 0x40 MLOAD PUSH32 0x8C379A000000000000000000000000000000000000000000000000000000000 DUP2 MSTORE PUSH1 0x4 ADD PUSH2 0x692 SWAP1 PUSH2 0xE07 JUMP JUMPDEST PUSH1 0x40 MLOAD DUP1 SWAP2 SUB SWAP1 REVERT JUMPDEST TIMESTAMP DUP2 PUSH1 0x3 ADD DUP2 SWAP1 SSTORE POP DUP3 DUP2 PUSH1 0x4 ADD DUP2 SWAP1 SSTORE POP DUP4 DUP2 PUSH1 0x1 ADD DUP2 SWAP1 SSTORE POP PUSH5 0x496CEBB800 DUP4 PUSH1 0x1 SLOAD DUP7 PUSH2 0x6CB SWAP2 SWAP1 PUSH2 0xE27 JUMP JUMPDEST PUSH2 0x6D5 SWAP2 SWAP1 PUSH2 0xE27 JUMP JUMPDEST PUSH2 0x6DF SWAP2 SWAP1 PUSH2 0xE98 JUMP JUMPDEST DUP5 PUSH2 0x6EA SWAP2 SWAP1 PUSH2 0xB00 JUMP JUMPDEST DUP2 PUSH1 0x2 ADD DUP2 SWAP1 SSTORE POP POP POP POP POP JUMP JUMPDEST PUSH2 0x700 PUSH2 0x77E JUMP JUMPDEST PUSH1 0x0 PUSH20 0xFFFFFFFFFFFFFFFFFFFFFFFFFFFFFFFFFFFFFFFF AND DUP2 PUSH20 0xFFFFFFFFFFFFFFFFFFFFFFFFFFFFFFFFFFFFFFFF AND SUB PUSH2 0x772 JUMPI PUSH1 0x0 PUSH1 0x40 MLOAD PUSH32 0x1E4FBDF700000000000000000000000000000000000000000000000000000000 DUP2 MSTORE PUSH1 0x4 ADD PUSH2 0x769 SWAP2 SWAP1 PUSH2 0xA10 JUMP JUMPDEST PUSH1 0x40 MLOAD DUP1 SWAP2 SUB SWAP1 REVERT JUMPDEST PUSH2 0x77B DUP2 PUSH2 0x805 JUMP JUMPDEST POP JUMP JUMPDEST PUSH2 0x786 PUSH2 0x8C9 JUMP JUMPDEST PUSH20 0xFFFFFFFFFFFFFFFFFFFFFFFFFFFFFFFFFFFFFFFF AND PUSH2 0x7A4 PUSH2 0x3A4 JUMP JUMPDEST PUSH20 0xFFFFFFFFFFFFFFFFFFFFFFFFFFFFFFFFFFFFFFFF AND EQ PUSH2 0x803 JUMPI PUSH2 0x7C7 PUSH2 0x8C9 JUMP JUMPDEST PUSH1 0x40 MLOAD PUSH32 0x118CDAA700000000000000000000000000000000000000000000000000000000 DUP2 MSTORE PUSH1 0x4 ADD PUSH2 0x7FA SWAP2 SWAP1 PUSH2 0xA10 JUMP JUMPDEST PUSH1 0x40 MLOAD DUP1 SWAP2 SUB SWAP1 REVERT JUMPDEST JUMP JUMPDEST PUSH1 0x0 DUP1 PUSH1 0x0 SWAP1 SLOAD SWAP1 PUSH2 0x100 EXP SWAP1 DIV PUSH20 0xFFFFFFFFFFFFFFFFFFFFFFFFFFFFFFFFFFFFFFFF AND SWAP1 POP DUP2 PUSH1 0x0 DUP1 PUSH2 0x100 EXP DUP2 SLOAD DUP2 PUSH20 0xFFFFFFFFFFFFFFFFFFFFFFFFFFFFFFFFFFFFFFFF MUL NOT AND SWAP1 DUP4 PUSH20 0xFFFFFFFFFFFFFFFFFFFFFFFFFFFFFFFFFFFFFFFF AND MUL OR SWAP1 SSTORE POP DUP2 PUSH20 0xFFFFFFFFFFFFFFFFFFFFFFFFFFFFFFFFFFFFFFFF AND DUP2 PUSH20 0xFFFFFFFFFFFFFFFFFFFFFFFFFFFFFFFFFFFFFFFF AND PUSH32 0x8BE0079C531659141344CD1FD0A4F28419497F9722A3DAAFE3B4186F6B6457E0 PUSH1 0x40 MLOAD PUSH1 0x40 MLOAD DUP1 SWAP2 SUB SWAP1 LOG3 POP POP JUMP JUMPDEST PUSH1 0x0 CALLER SWAP1 POP SWAP1 JUMP JUMPDEST PUSH1 0x0 DUP1 REVERT JUMPDEST PUSH1 0x0 DUP2 SWAP1 POP SWAP2 SWAP1 POP JUMP JUMPDEST PUSH2 0x8E9 DUP2 PUSH2 0x8D6 JUMP JUMPDEST DUP2 EQ PUSH2 0x8F4 JUMPI PUSH1 0x0 DUP1 REVERT JUMPDEST POP JUMP JUMPDEST PUSH1 0x0 DUP2 CALLDATALOAD SWAP1 POP PUSH2 0x906 DUP2 PUSH2 0x8E0 JUMP JUMPDEST SWAP3 SWAP2 POP POP JUMP JUMPDEST PUSH1 0x0 PUSH20 0xFFFFFFFFFFFFFFFFFFFFFFFFFFFFFFFFFFFFFFFF DUP3 AND SWAP1 POP SWAP2 SWAP1 POP JUMP JUMPDEST PUSH1 0x0 PUSH2 0x937 DUP3 PUSH2 0x90C JUMP JUMPDEST SWAP1 POP SWAP2 SWAP1 POP JUMP JUMPDEST PUSH2 0x947 DUP2 PUSH2 0x92C JUMP JUMPDEST DUP2 EQ PUSH2 0x952 JUMPI PUSH1 0x0 DUP1 REVERT JUMPDEST POP JUMP JUMPDEST PUSH1 0x0 DUP2 CALLDATALOAD SWAP1 POP PUSH2 0x964 DUP2 PUSH2 0x93E JUMP JUMPDEST SWAP3 SWAP2 POP POP JUMP JUMPDEST PUSH1 0x0 DUP1 PUSH1 0x40 DUP4 DUP6 SUB SLT ISZERO PUSH2 0x981 JUMPI PUSH2 0x980 PUSH2 0x8D1 JUMP JUMPDEST JUMPDEST PUSH1 0x0 PUSH2 0x98F DUP6 DUP3 DUP7 ADD PUSH2 0x8F7 JUMP JUMPDEST SWAP3 POP POP PUSH1 0x20 PUSH2 0x9A0 DUP6 DUP3 DUP7 ADD PUSH2 0x955 JUMP JUMPDEST SWAP2 POP POP SWAP3 POP SWAP3 SWAP1 POP JUMP JUMPDEST PUSH2 0x9B3 DUP2 PUSH2 0x8D6 JUMP JUMPDEST DUP3 MSTORE POP POP JUMP JUMPDEST PUSH1 0x0 PUSH1 0x20 DUP3 ADD SWAP1 POP PUSH2 0x9CE PUSH1 0x0 DUP4 ADD DUP5 PUSH2 0x9AA JUMP JUMPDEST SWAP3 SWAP2 POP POP JUMP JUMPDEST PUSH1 0x0 PUSH1 0x20 DUP3 DUP5 SUB SLT ISZERO PUSH2 0x9EA JUMPI PUSH2 0x9E9 PUSH2 0x8D1 JUMP JUMPDEST JUMPDEST PUSH1 0x0 PUSH2 0x9F8 DUP5 DUP3 DUP6 ADD PUSH2 0x955 JUMP JUMPDEST SWAP2 POP POP SWAP3 SWAP2 POP POP JUMP JUMPDEST PUSH2 0xA0A DUP2 PUSH2 0x92C JUMP JUMPDEST DUP3 MSTORE POP POP JUMP JUMPDEST PUSH1 0x0 PUSH1 0x20 DUP3 ADD SWAP1 POP PUSH2 0xA25 PUSH1 0x0 DUP4 ADD DUP5 PUSH2 0xA01 JUMP JUMPDEST SWAP3 SWAP2 POP POP JUMP JUMPDEST PUSH1 0x0 PUSH1 0xA0 DUP3 ADD SWAP1 POP PUSH2 0xA40 PUSH1 0x0 DUP4 ADD DUP9 PUSH2 0x9AA JUMP JUMPDEST PUSH2 0xA4D PUSH1 0x20 DUP4 ADD DUP8 PUSH2 0x9AA JUMP JUMPDEST PUSH2 0xA5A PUSH1 0x40 DUP4 ADD DUP7 PUSH2 0x9AA JUMP JUMPDEST PUSH2 0xA67 PUSH1 0x60 DUP4 ADD DUP6 PUSH2 0x9AA JUMP JUMPDEST PUSH2 0xA74 PUSH1 0x80 DUP4 ADD DUP5 PUSH2 0x9AA JUMP JUMPDEST SWAP7 SWAP6 POP POP POP POP POP POP JUMP JUMPDEST PUSH1 0x0 DUP1 PUSH1 0x0 PUSH1 0x60 DUP5 DUP7 SUB SLT ISZERO PUSH2 0xA97 JUMPI PUSH2 0xA96 PUSH2 0x8D1 JUMP JUMPDEST JUMPDEST PUSH1 0x0 PUSH2 0xAA5 DUP7 DUP3 DUP8 ADD PUSH2 0x8F7 JUMP JUMPDEST SWAP4 POP POP PUSH1 0x20 PUSH2 0xAB6 DUP7 DUP3 DUP8 ADD PUSH2 0x8F7 JUMP JUMPDEST SWAP3 POP POP PUSH1 0x40 PUSH2 0xAC7 DUP7 DUP3 DUP8 ADD PUSH2 0x955 JUMP JUMPDEST SWAP2 POP POP SWAP3 POP SWAP3 POP SWAP3 JUMP JUMPDEST PUSH32 0x4E487B7100000000000000000000000000000000000000000000000000000000 PUSH1 0x0 MSTORE PUSH1 0x11 PUSH1 0x4 MSTORE PUSH1 0x24 PUSH1 0x0 REVERT JUMPDEST PUSH1 0x0 PUSH2 0xB0B DUP3 PUSH2 0x8D6 JUMP JUMPDEST SWAP2 POP PUSH2 0xB16 DUP4 PUSH2 0x8D6 JUMP JUMPDEST SWAP3 POP DUP3 DUP3 ADD SWAP1 POP DUP1 DUP3 GT ISZERO PUSH2 0xB2E JUMPI PUSH2 0xB2D PUSH2 0xAD1 JUMP JUMPDEST JUMPDEST SWAP3 SWAP2 POP POP JUMP JUMPDEST PUSH1 0x0 DUP3 DUP3 MSTORE PUSH1 0x20 DUP3 ADD SWAP1 POP SWAP3 SWAP2 POP POP JUMP JUMPDEST PUSH32 0x4E6F20636F6C6C61746572616C20746F20636C61696D00000000000000000000 PUSH1 0x0 DUP3 ADD MSTORE POP JUMP JUMPDEST PUSH1 0x0 PUSH2 0xB7B PUSH1 0x16 DUP4 PUSH2 0xB34 JUMP JUMPDEST SWAP2 POP PUSH2 0xB86 DUP3 PUSH2 0xB45 JUMP JUMPDEST PUSH1 0x20 DUP3 ADD SWAP1 POP SWAP2 SWAP1 POP JUMP JUMPDEST PUSH1 0x0 PUSH1 0x20 DUP3 ADD SWAP1 POP DUP2 DUP2 SUB PUSH1 0x0 DUP4 ADD MSTORE PUSH2 0xBAA DUP2 PUSH2 0xB6E JUMP JUMPDEST SWAP1 POP SWAP2 SWAP1 POP JUMP JUMPDEST PUSH1 0x0 PUSH2 0xBBC DUP3 PUSH2 0x8D6 JUMP JUMPDEST SWAP2 POP PUSH2 0xBC7 DUP4 PUSH2 0x8D6 JUMP JUMPDEST SWAP3 POP DUP3 DUP3 SUB SWAP1 POP DUP2 DUP2 GT ISZERO PUSH2 0xBDF JUMPI PUSH2 0xBDE PUSH2 0xAD1 JUMP JUMPDEST JUMPDEST SWAP3 SWAP2 POP POP JUMP JUMPDEST PUSH32 0x4C6F616E206475726174696F6E206E6F74206578636565646564000000000000 PUSH1 0x0 DUP3 ADD MSTORE POP JUMP JUMPDEST PUSH1 0x0 PUSH2 0xC1B PUSH1 0x1A DUP4 PUSH2 0xB34 JUMP JUMPDEST SWAP2 POP PUSH2 0xC26 DUP3 PUSH2 0xBE5 JUMP JUMPDEST PUSH1 0x20 DUP3 ADD SWAP1 POP SWAP2 SWAP1 POP JUMP JUMPDEST PUSH1 0x0 PUSH1 0x20 DUP3 ADD SWAP1 POP DUP2 DUP2 SUB PUSH1 0x0 DUP4 ADD MSTORE PUSH2 0xC4A DUP2 PUSH2 0xC0E JUMP JUMPDEST SWAP1 POP SWAP2 SWAP1 POP JUMP JUMPDEST PUSH32 0x52657061796D656E7420616D6F756E74206D7573742062652067726561746572 PUSH1 0x0 DUP3 ADD MSTORE PUSH32 0x207468616E207A65726F00000000000000000000000000000000000000000000 PUSH1 0x20 DUP3 ADD MSTORE POP JUMP JUMPDEST PUSH1 0x0 PUSH2 0xCAD PUSH1 0x2A DUP4 PUSH2 0xB34 JUMP JUMPDEST SWAP2 POP PUSH2 0xCB8 DUP3 PUSH2 0xC51 JUMP JUMPDEST PUSH1 0x40 DUP3 ADD SWAP1 POP SWAP2 SWAP1 POP JUMP JUMPDEST PUSH1 0x0 PUSH1 0x20 DUP3 ADD SWAP1 POP DUP2 DUP2 SUB PUSH1 0x0 DUP4 ADD MSTORE PUSH2 0xCDC DUP2 PUSH2 0xCA0 JUMP JUMPDEST SWAP1 POP SWAP2 SWAP1 POP JUMP JUMPDEST PUSH32 0x4C6F616E206475726174696F6E20657863656564656400000000000000000000 PUSH1 0x0 DUP3 ADD MSTORE POP JUMP JUMPDEST PUSH1 0x0 PUSH2 0xD19 PUSH1 0x16 DUP4 PUSH2 0xB34 JUMP JUMPDEST SWAP2 POP PUSH2 0xD24 DUP3 PUSH2 0xCE3 JUMP JUMPDEST PUSH1 0x20 DUP3 ADD SWAP1 POP SWAP2 SWAP1 POP JUMP JUMPDEST PUSH1 0x0 PUSH1 0x20 DUP3 ADD SWAP1 POP DUP2 DUP2 SUB PUSH1 0x0 DUP4 ADD MSTORE PUSH2 0xD48 DUP2 PUSH2 0xD0C JUMP JUMPDEST SWAP1 POP SWAP2 SWAP1 POP JUMP JUMPDEST PUSH32 0x4E6F7420656E6F756768207374616B656420746F6B656E730000000000000000 PUSH1 0x0 DUP3 ADD MSTORE POP JUMP JUMPDEST PUSH1 0x0 PUSH2 0xD85 PUSH1 0x18 DUP4 PUSH2 0xB34 JUMP JUMPDEST SWAP2 POP PUSH2 0xD90 DUP3 PUSH2 0xD4F JUMP JUMPDEST PUSH1 0x20 DUP3 ADD SWAP1 POP SWAP2 SWAP1 POP JUMP JUMPDEST PUSH1 0x0 PUSH1 0x20 DUP3 ADD SWAP1 POP DUP2 DUP2 SUB PUSH1 0x0 DUP4 ADD MSTORE PUSH2 0xDB4 DUP2 PUSH2 0xD78 JUMP JUMPDEST SWAP1 POP SWAP2 SWAP1 POP JUMP JUMPDEST PUSH32 0x506C7A2072657061792070726576696F7573206C6F616E000000000000000000 PUSH1 0x0 DUP3 ADD MSTORE POP JUMP JUMPDEST PUSH1 0x0 PUSH2 0xDF1 PUSH1 0x17 DUP4 PUSH2 0xB34 JUMP JUMPDEST SWAP2 POP PUSH2 0xDFC DUP3 PUSH2 0xDBB JUMP JUMPDEST PUSH1 0x20 DUP3 ADD SWAP1 POP SWAP2 SWAP1 POP JUMP JUMPDEST PUSH1 0x0 PUSH1 0x20 DUP3 ADD SWAP1 POP DUP2 DUP2 SUB PUSH1 0x0 DUP4 ADD MSTORE PUSH2 0xE20 DUP2 PUSH2 0xDE4 JUMP JUMPDEST SWAP1 POP SWAP2 SWAP1 POP JUMP JUMPDEST PUSH1 0x0 PUSH2 0xE32 DUP3 PUSH2 0x8D6 JUMP JUMPDEST SWAP2 POP PUSH2 0xE3D DUP4 PUSH2 0x8D6 JUMP JUMPDEST SWAP3 POP DUP3 DUP3 MUL PUSH2 0xE4B DUP2 PUSH2 0x8D6 JUMP JUMPDEST SWAP2 POP DUP3 DUP3 DIV DUP5 EQ DUP4 ISZERO OR PUSH2 0xE62 JUMPI PUSH2 0xE61 PUSH2 0xAD1 JUMP JUMPDEST JUMPDEST POP SWAP3 SWAP2 POP POP JUMP JUMPDEST PUSH32 0x4E487B7100000000000000000000000000000000000000000000000000000000 PUSH1 0x0 MSTORE PUSH1 0x12 PUSH1 0x4 MSTORE PUSH1 0x24 PUSH1 0x0 REVERT JUMPDEST PUSH1 0x0 PUSH2 0xEA3 DUP3 PUSH2 0x8D6 JUMP JUMPDEST SWAP2 POP PUSH2 0xEAE DUP4 PUSH2 0x8D6 JUMP JUMPDEST SWAP3 POP DUP3 PUSH2 0xEBE JUMPI PUSH2 0xEBD PUSH2 0xE69 JUMP JUMPDEST JUMPDEST DUP3 DUP3 DIV SWAP1 POP SWAP3 SWAP2 POP POP JUMP INVALID LOG2 PUSH5 0x6970667358 0x22 SLT KECCAK256 POP LOG0 TLOAD SLT PUSH27 0xD84600BFF8863D15AE646877CC87BE3A828C4DE08E2648AF5CBF7C PUSH5 0x736F6C6343 STOP ADDMOD XOR STOP CALLER "
        },
        "methodIdentifiers": {
          "borrow(uint256,uint256,address)": "d6bda0c0",
          "borrowers(address)": "bf5d50c4",
          "claimCollateral(address)": "8235b284",
          "collateralAmount()": "92d09ceb",
          "interestRate()": "7c3a00fd",
          "owner()": "8da5cb5b",
          "renounceOwnership()": "715018a6",
          "repay(uint256,address)": "acb70815",
          "resetStackedTokens(address)": "91061759",
          "stakeTokens(uint256,address)": "0bea440d",
          "transferOwnership(address)": "f2fde38b"
        }
      }
    }
  }
}